:06000000020C8A0208F068
:100013000209D3753701E537601CE5387018AF3A2C
:10002300053A74082FF8E6F5396006753801D2C52C
:0700330022E4F537F53A2243
:10003B00020E8753D9BFE4F5B943B980F5450545A1
:10004B00E545B414F943B9C0E5B930E5FB43A90262
:10005B0075B28375E10775E2C175A43F75A59075FF
:10006B00A69975F2BB75F3FD75D4C075D54C75D6D5
:10007B0002120B5F7F0912114175A14075F80875CB
:10008B00A20143F801D2FA7F017E00121117C2FAC6
:10009B007F017E00121117D2FA7F297E00121117F1
:1000AB00C2FA2081FD75A330A2FFE43360FAC2FFD0
:1000BB00D2FA7BFF7A1179521202C57D0E7F0312A1
:1000CB0010FB901175E493FD7F3E1210FB120D1681
:1000DB00D2BAE559700302019414700302021D1485
:1000EB0070030202681470030202701470E47FFA4A
:1000FB007E00121117120D96900204EFF090021A67
:10010B00E06F6008900204E0FF120A9B900204E08B
:10011B0090021AF0E555B403B9121090EF60B3C218
:10012B00AF900253E07004A3E06401703175590283
:10013B00754AFF754B10754CE67BFF7A1079DA1216
:10014B000764E4FDFF1210FBD28AE5E4540F44F080
:10015B00F5E4D2AAD288E5E454F0440E801DE4F510
:10016B00597D02FF1210FBD28AE5E4540F4470F55F
:10017B00E4D2AAD288E5E454F04406F5E4D2A80010
:10018B00C289C28BD2AF0200DD120EF77FA87E614F
:10019B0012111790024FE0FEA3E0FFC39440EE94C0
:1001AB000050187B017A017902EF04F54A7F3F1268
:1001BB0010197F3512112FC2AA80547B017A017955
:1001CB0002754A407F3F1210197F3512112F900292
:1001DB0050E024C1FE90024FE034FF900210F0A3D8
:1001EB00CEF09002157401F0A37401F0A37442F0E9
:1001FB00900210E0FEA3E0FF7C007D3C120696A36C
:10020B00EFF07003A304F0C2AFD2AAC28BD2AF75CA
:10021B005901900214E070030200DDE4F090021823
:10022B00120BFB754A01754B02754C497BFF7A101B
:10023B0079EB120764900251E0FEA3E0FFC390023A
:10024B0019E09F900218E09E5006E4F5590200DD7C
:10025B00E4900218F0A3F07559040200DD7F34120C
:10026B00112F755903900207E070030200DDE4F0D3
:10027B007B0190020904F0A37400F0A37400F090CA
:10028B00020DE06017A3E4120BFB754A01754B02DC
:10029B00754C497BFF7A1079F1120764755902C2CC
:1002AB00AFD2AA00C28BD288E5E454F0440EF5E439
:1002BB00D2A800C289D2AF0200DD8B468A4789489B
:1002CB0012062EFD7F0B1210FBAB46AA47A94890D6
:1002DB000001120647FD7F0C1210FBAB46AA47A983
:1002EB0048900002120647FD7F0D1210FBAB46AA89
:1002FB0047A948900003120647FD7F0E1210FBAB77
:10030B0046AA47A948900004120647FD7F0F12101A
:10031B00FBAB46AA47A948900005120647FD7F1084
:10032B001210FBAB46AA47A948900006120647FDE0
:10033B007F111210FBAB46AA47A948900007120683
:10034B0047FD7F121210FBAB46AA47A94890000845
:10035B00120647FD7F131210FBAB46AA47A9489024
:10036B000009120647FD7F141210FBAB46AA47A9E2
:10037B004890000A120647FD7F0A1210FBAB46AAF3
:10038B0047A94890000B120647FD7F151210FBABD7
:10039B0046AA47A94890000C120647FD7F21121070
:1003AB00FBAB46AA47A94890000D120647FD7F22DA
:1003BB001210FBAB46AA47A94890000E120647FD48
:1003CB007F181210FBAB46AA47A94890000F1206E4
:1003DB0047FD7F191210FBAB46AA47A948900010A6
:1003EB00120647FD7F1A1210FBAB46AA47A948908D
:1003FB000011120647FD7F1B1210FBAB46AA47A943
:10040B0048900012120647FD7F1C1210FBAB46AA48
:10041B0047A948900013120647FD7F1D1210FBAB36
:10042B0046AA47A948900014120647FD7F231210D5
:10043B00FBAB46AA47A948900015120647FD7F243F
:10044B001210FBAB46AA47A948900016120647FDAF
:10045B007F251210FBAB46AA47A94890001712063E
:10046B0047FD7F261210FBAB46AA47A94890001800
:10047B00120647FD7F291210FBAB46AA47A94890ED
:10048B000019120647FD7F2C1210FBAB46AA47A999
:10049B004890001A120647FD7F2D1210FBAB46AA9F
:1004AB0047A94890001B120647FD7F2E1210FBAB8D
:1004BB0046AA47A94890001C120647FD7F0312105D
:1004CB00FBAB46AA47A94890001D120647FDE4FF67
:1004DB001210FBAB46AA47A94890001E120647FD17
:1004EB007F021210FBAB46AA47A94890001F1206C9
:1004FB0047FD7F071210FBAB46AA47A94890002087
:10050B00120647FD7F081210FBAB46AA47A948907D
:10051B000021120647FD7F091210FBAB46AA47A923
:10052B0048900022120647FD7F060210FBE709F6F2
:10053B0008DFFA8046E709F208DFFA803E88828CF2
:10054B0083E709F0A3DFFA8032E309F608DFFA80CC
:10055B0078E309F208DFFA807088828C83E309F074
:10056B00A3DFFA806489828A83E0A3F608DFFA802E
:10057B005889828A83E0A3F208DFFA804C80D2800C
:10058B00FA80C680D4806980F28033801080A68088
:10059B00EA809A80A880DA80E280CA803389828AD6
:1005AB0083ECFAE493A3C8C582C8CCC583CCF0A373
:1005BB00C8C582C8CCC583CCDFE9DEE7800D898254
:1005CB008A83E493A3F608DFF9ECFAA9F0EDFB229A
:1005DB0089828A83ECFAE0A3C8C582C8CCC583CCD8
:1005EB00F0A3C8C582C8CCC583CCDFEADEE880DBCC
:1005FB0089828A83E493A3F208DFF980CC88F0EF39
:10060B0060010E4E60C388F0ED2402B4040050B9B3
:10061B00F582EB2402B4040050AF232345822390D0
:10062B00058873BB010689828A83E0225002E72288
:10063B00BBFE02E32289828A83E49322BB010CE591
:10064B008229F582E5833AF583E0225006E925827B
:10065B00F8E622BBFE06E92582F8E222E58229F5BF
:10066B0082E5833AF583E49322F8BB010DE58229F9
:10067B00F582E5833AF583E8F0225006E92582C836
:10068B00F622BBFE05E92582C8F222BC000BBE0098
:10069B0029EF8DF084FFADF022E4CCF875F008EF74
:1006AB002FFFEE33FEEC33FCEE9DEC984005FCEE99
:1006BB009DFE0FD5F0E9E4CEFD22EDF8F5F0EE84CA
:1006CB0020D21CFEADF075F008EF2FFFED33FD408F
:1006DB0007985006D5F0F222C398FD0FD5F0EA2209
:1006EB00C5F0F8A3E028F0C5F0F8E582158270029A
:1006FB001583E038F022BB010A89828A83E0F5F08A
:10070B00A3E022500687F009E71922BBFE07E3F5A9
:10071B00F009E3192289828A83E493F5F07401933B
:10072B0022BB010789828A830206EB500B09C5F0B5
:10073B0027F7C5F01937F722BBFE0D09F8E325F0B3
:10074B00F3C5F019E338F322F889828A8374019395
:10075B0025F0C5F0F8E49338228B478A488949E4A1
:10076B00F54DE53760030208ED750803750976F55D
:10077B000A750C12750D76750E4012062EFF700B56
:10078B00AB4AAA4BA94C12062E700EAB4AAA4BA928
:10079B004C12062E7075EF6072AB47AA48A949122E
:1007AB00062E600B750B808B4E8A4F8950800C7513
:1007BB000BC0854A4E854B4F854C50AB4EAA4FA96B
:1007CB0050120F93740F254DF8A607AB4EAA4FA9E5
:1007DB0050AF4D054D8F827583001206476007E5BC
:1007EB004DC3941040D5E54DC39410501874072594
:1007FB004DF54DE54DC39417500B7408254DF87608
:10080B009B054D80EEE4F51F0208E4AB47AA48A90F
:10081B004912062E70030208E4AB4AAA4BA94C12EC
:10082B00062E70030208E4750B80751F0375207686
:10083B00E4F5217522C0752312752476752540AB1E
:10084B0047AA48A949120F93740F254DF8A607AB79
:10085B0047AA48A949AF4D054D8F827583001206F3
:10086B00476007E54DC3941040D5E54DC394105038
:10087B00187407254DF54DE54DC39417500B7408AF
:10088B00254DF8769B054D80EEE4F54DAB4AAA4B12
:10089B00A94C120F937426254DF8A607AB4AAA4B09
:1008AB00A94CAF4D054D8F8275830012064760072B
:1008BB00E54DC3941040D5E54DC394105018741EEC
:1008CB00254DF54DE54DC3942E500B7408254DF871
:1008DB00769B054D80EEE4F5367537011200197FD6
:1008EB0001227F0022C0E0C0F0C083C082C0D0755F
:1008FB00D000C000C001C002C003C004C005C006C8
:10090B00C007900253E07002A3E0700A900213F04C
:10091B00A304F00209B8900208E070547F46FE125F
:10092B0011172086030209B87F3F1210B890020CF2
:10093B00EFF02402FEE433900205F0A3CEF0900218
:10094B000AE475F0011206EB9002087401F0C390F3
:10095B000206E09440900205E094005002C2AAD235
:10096B0088E5E454F04406F5E4D2A800C289803D42
:10097B00900209E0FBA3E0FAA3E0F9900205A3E0E3
:10098B00F5447F3F120FD890020CE0900000F090DE
:10099B000208E4F090020704F090020CE02402F548
:1009AB0082E43400F583E0548090020DF0D007D040
:1009BB0006D005D004D003D002D001D000D0D0D0C7
:1009CB0082D083D0F0D0E032C0E0C0F0C083C082D0
:1009DB00C0D075D000C000C001C002C003C004C0AD
:1009EB0005C006C007900253E07002A3E070599057
:1009FB000213E0601B900215E0FBA3E0FAA3E0F901
:100A0B00900210A3E0F54A7F3F121019C2AA80632F
:100A1B00900215E0FBA3E0FAA3E0F9754A3C7F3F97
:100A2B00121019900216E475F03C1206EB900211AD
:100A3B00E024C4F0900210E034FFF0900212E014B6
:100A4B00F07030A304F0802B900209E0FBA3E0FAD6
:100A5B00A3E0F975443B7F3F120FD8900206E024C8
:100A6B00C5F0900205E034FFF090020AE475F03B0C
:100A7B001206EBC28BD007D006D005D004D003D022
:100A8B0002D001D000D0D0D082D083D0F0D0E032D1
:100A9B008F46E55575F017A4242BF9740E35F0FA33
:100AAB007BFF781B7C027D017E007F17120608E519
:100ABB004624FE601C14602714605E24036003024E
:100ACB000B5CE555D394005003020B5C1555020BE0
:100ADB005CE55614FFE555C39F5076055580729023
:100AEB00022CE0FBA3E0FAA3E0F9120701FF90024E
:100AFB002FE0FDD3EF9DE5F094004055E5557007D1
:100B0B0074FF75F0EC8047E555B4010774FF75F081
:100B1B009C803B74FFF5F0803590022CE0FBA3E04A
:100B2B00FAA3E0F9120701FFD3900231E09F900284
:100B3B0030E095F0401BE555700575F014800FE51E
:100B4B0055B40106E475F0648004E475F0011207F6
:100B5B002C020D16758C96858C8A5389FC43890261
:100B6B00438E04D28C43C18043E601D2AFE4F53708
:100B7B00F538F53AC2A3000000000000000000D2D7
:100B8B00A3750807750976F50A750B0C750C21759D
:100B9B000DA0750E07750F24F510120016E53764BE
:100BAB000160FA750803750976E4F50A750B807513
:100BBB000C12750D76750E407F10780F749BF6082E
:100BCB00DFFC751F03752076E4F5217522C07523B4
:100BDB00127524767525407F107826749BF608DFF6
:100BEB00FC7F10E4F536120016E537640160FA223B
:100BFB0075F0011206EBAFF0FE8E478F48E4F54916
:100C0B00FBF54AF54B754C27754D10E5484547707C
:100C1B000A9002497430F0E4A3F0227A05AC4CAD93
:100C2B004DAE47AF481206968E4A8F4BEB64016070
:100C3B0006E54B454A60267B01AE47AF48AC4CAD51
:100C4B004D1206968C478D48E54B2430FFAE490577
:100C5B004974492EF582E43402F583EFF0AE4CAFC4
:100C6B004D7C007D0A1206968E4C8F4DDAAFAF4944
:100C7B00054974492FF582E43402F583E4F02278B8
:100C8B007FE4F6D8FD758159020CD102003EE49346
:100C9B00A3F8E493A34003F68001F208DFF4802964
:100CAB00E493A3F85407240CC8C333C4540F442053
:100CBB00C8834004F456800146F6DFE4800B010242
:100CCB00040810204080901057E47E019360BCA371
:100CDB00FF543F30E509541FFEE493A360010ECF90
:100CEB0054C025E060A840B8E493A3FAE493A3F8BA
:100CFB00E493A3C8C582C8CAC583CAF0A3C8C5827A
:100D0B00C8CAC583CADFE9DEE780BEE55575F017B3
:100D1B00A4242BF9740E35F0FA7BFF78327C027D1C
:100D2B00017E007F17120608E55524FD602504702F
:100D3B0033900253E07004A3E06401700B754AFF1B
:100D4B00754B0E754C138039754AFF754B0E754CF0
:100D5B0016802E754AFF754B0E754C227BFF7A0E53
:100D6B0079198023900243E0FBA3E0FAA3E0F91288
:100D7B000701FFAEF0120C04754A01754B02754C5E
:100D8B00497B017A02793212076422C2EDD2EC3030
:100D9B00EDFDAFBEEFD394607E0040027E01EFC34A
:100DAB00947B7D0050027D01ED5E60037F0322EF9B
:100DBB00D394A47E0040027E01EFC394BF7D00500C
:100DCB00027D01ED5E60037F0422EFD394C47E00AD
:100DDB0040027E01EFC394DF7D0050027D01ED5E8A
:100DEB0060037F0122EFC394007E0040027E01EF7F
:100DFB00C3943D7F0050027F01EF5E60037F0222B0
:100E0B007F003095027F0522527800547800507293
:100E1B0065737320533100746F20737461727400A7
:100E2B0053657420706B742E206C656E677468004C
:100E3B000001024F0A00FA4E756D626572206F66F3
:100E4B00207061636B6574730102516403E8526136
:100E5B0064696F204D6F64650000000000000001A5
:100E6B000253000001537461727400000000000013
:100E7B00000000000000000000000000C0E0C0F017
:100E8B00C083C082C0D075D000C000C001C002C0FA
:100E9B0003C004C005C006C007E5C054F024406081
:100EAB001324E0702AAF3A053A74082FF8E6F5C21E
:100EBB00C2C5801B1539E539600DAF3A053A740888
:100ECB002FF8E6F5C28008D2C4753800120019C29B
:100EDB00C0D007D006D005D004D003D002D001D0AB
:100EEB0000D0D0D082D083D0F0D0E03290024FA38C
:100EFB00E0900102F0E4A3F090021BF0A37402F067
:100F0B0090024FE0FEA3E0FFD390021CE09F900203
:100F1B001BE09E5025120F4690021BE0FCA3E02421
:100F2B0002F58274013CF583EFF090021CE004F0B3
:100F3B0070CE90021BE004F080C622AC51AD52AED5
:100F4B0053AF547810EC4D4E4F70047CA57DA5C368
:100F5B00EC13FCED13FDEE13FEEF13FF5010EC64DE
:100F6B00CCFCED644CFDEE644EFEEF64CEFFD8DF9F
:100F7B008C518D528E538F54EE547FFE228E518F97
:100F8B005274A5F553F55422854D827583001206D4
:100F9B0047FFBF24047F828033BF40047F80802CB7
:100FAB00EF70047F9B8025EFD3941F4005EF9424B3
:100FBB004016EFD394244005EF9440400BEFD394AD
:100FCB00404009EF945B500474802FFF228B418AC1
:100FDB00428943C2FA2081FDEF44C0F5A3A2FFE48E
:100FEB003360FAC2FFE4FFEFC39544501EE4F5A350
:100FFB00A2FFE43360FAC2FFAB41AA42A9438F823E
:10100B00758300E5A31206740F80DCD2FA228B479E
:10101B008A488949C2FA2081FDEF4440F5A3A2FF1B
:10102B00E43360FAC2FFE4FFEFC3954A501BAB47B2
:10103B00AA48A9498F82758300120647F5A3A2FF20
:10104B00E43360FAC2FF0F80DFD2FA2241020400C0
:10105B0041021A000159044A02100000000000016D
:10106B00010200004B02050000000001000000001F
:10107B00000046024F000A006400000155000156B3
:10108B000401580100209314E558601EAF57055713
:10109B00EFB46416E4F558F5577F0122AF570557A7
:1010AB00EFB46406755801E4F5577F0022C2FA20AD
:1010BB0081FDEF4480F5A3A2FFE43360FAC2FFE4A5
:1010CB00F5A3A2FFE43360FAC2FFAFA3D2FA225713
:1010DB00616974696E6720666F7200646174610088
:1010EB0053656E743A0052656365697665643A00C0
:1010FB00C2FA2081FD8FA3A2FFE43360FAC2FF8DF9
:10110B00A3A2FFE43360FAC2FFD2FA220000000070
:10111B0000000000000000000000EF1F70011E1413
:10112B004E70E922C2FA2081FD8FA3A2FFE4336047
:10113B00FAC2FFD2FA2275BC3C75E840D2EF75D1EA
:10114B00088FBB75BA1F22080024BB137B831322A5
:10115B00F80042B610181D1CC700B2AA0A000759A6
:0B116B00813509472906040500FF60DC
:00000001FF
