:060800000214770210DD76
:100813000211C0755A01E55A601CE55B7018AF5DA3
:10082300055D742B2FF8E6F55C6006755B01D2C598
:0708330022E4F55AF55D22F5
:03083B0002166E34
:10084600E18C6418E38B5E8A5F8960120E1BFD7F64
:100856000B121903AB5EAA5FA960900001120E3459
:10086600FD7F0C121903AB5EAA5FA960900002120D
:100876000E34FD7F0D121903AB5EAA5FA9609000CE
:1008860003120E34FD7F0E121903AB5EAA5FA96038
:10089600900004120E34FD7F0F121903AB5EAA5F9F
:1008A600A960900005120E34FD7F10121903AB5E8D
:1008B600AA5FA960900006120E34FD7F111219037B
:1008C600AB5EAA5FA960900007120E34FD7F12127C
:1008D6001903AB5EAA5FA960900008120E34FD7F73
:1008E60013121903AB5EAA5FA960900009120E34B9
:1008F600FD7F14121903AB5EAA5FA96090000A126D
:100906000E34FD7F0A121903AB5EAA5FA960900040
:100916000B120E34FD7F15121903AB5EAA5FA96098
:1009260090000C120E34FD7F21121903AB5EAA5FF4
:10093600A96090000D120E34FD7F22121903AB5EE2
:10094600AA5FA96090000E120E34FD7F18121903DB
:10095600AB5EAA5FA96090000F120E34FD7F1912DC
:100966001903AB5EAA5FA960900010120E34FD7FDA
:100976001A121903AB5EAA5FA960900011120E3419
:10098600FD7F1B121903AB5EAA5FA96090001212CD
:100996000E34FD7F1C121903AB5EAA5FA96090009E
:1009A60013120E34FD7F1D121903AB5EAA5FA960F8
:1009B600900014120E34FD7F23121903AB5EAA5F5A
:1009C600A960900015120E34FD7F24121903AB5E48
:1009D600AA5FA960900016120E34FD7F2512190336
:1009E600AB5EAA5FA960900017120E34FD7F261237
:1009F6001903AB5EAA5FA960900018120E34FD7F42
:100A060029121903AB5EAA5FA960900019120E3471
:100A1600FD7F2C121903AB5EAA5FA96090001A1223
:100A26000E34FD7F2D121903AB5EAA5FA9609000FC
:100A36001B120E34FD7F2E121903AB5EAA5FA9604E
:100A460090001C120E34FD7F03121903AB5EAA5FE1
:100A5600A96090001D120E34FDE4FF121903AB5E6F
:100A6600AA5FA96090001E120E34FD7F02121903C0
:100A7600AB5EAA5FA96090001F120E34FD7F0712BD
:100A86001903AB5EAA5FA960900020120E34FD7FA9
:100A960008121903AB5EAA5FA960900021120E34FA
:100AA600FD7F09121903AB5EAA5FA96090002212AE
:100AB6000E34FD7F0602190375E10775E2C175A4C0
:100AC6003F75A59075A69975F2BB75F3FD75D4C0F3
:100AD60075D54C75D60212134C7F0912194975A1AA
:100AE6004075F80875A20143F801D2FA7F017E002D
:100AF60012191FC2FA7F017E0012191FD2FA7F292E
:100B06007E0012191FC2FA2081FD75A330A2FFE4F0
:100B16003360FAC2FFD2FA7BFF7A19795A12084B70
:100B26007D0E7F0312190390197DE493FD7F3E121B
:100B360019031214FDD2BAE57B7003020BF414708C
:100B460003020C7D147003020CC8147003020CD04F
:100B56001470E47FFA7E0012191F12157D900204AC
:100B6600EFF090021AE06F6008900204E0FF1212A4
:100B760088900204E090021AF0E577B403B91218DF
:100B860077EF60B3C2AF900253E07004A3E0640154
:100B96007031757B027562FF7563187564CD7BFFD6
:100BA6007A1879C1120F51E4FDFF121903D28AE5B2
:100BB600E4540F44F0F5E4D2AAD288E5E454F044B4
:100BC6000E801DE4F57B7D02FF121903D28AE5E44F
:100BD600540F4470F5E4D2AAD288E5E454F04406F2
:100BE600F5E4D2A800C289C28BD2AF020B3D121621
:100BF600DE7FA87E6112191F90024FE0FEA3E0FF80
:100C0600C39440EE940050187B017A017902EF04F8
:100C1600F56D7F3F1218007F35121937C2AA80542E
:100C26007B017A017902756D407F3F1218007F358E
:100C3600121937900250E024C1FE90024FE034FFB3
:100C4600900210F0A3CEF09002157401F0A3740187
:100C5600F0A37442F0900210E0FEA3E0FF7C007D5A
:100C66003C120E83A3EFF07003A304F0C2AFD2AA26
:100C7600C28BD2AF757B01900214E07003020B3D6C
:100C8600E4F09002181213E8756201756302756448
:100C9600497BFF7A1879D2120F51900251E0FEA3D8
:100CA600E0FFC3900219E09F900218E09E5006E410
:100CB600F57B020B3DE4900218F0A3F0757B04026D
:100CC6000B3D7F34121937757B03900207E07003E2
:100CD600020B3DE4F07B0190020904F0A37400F0DE
:100CE600A37400F090020DE06017A3E41213E875F8
:100CF60062017563027564497BFF7A1879D8120F11
:100D060051757B02C2AFD2AA00C28BD288E5E454E9
:100D1600F0440EF5E4D2A800C289D2AF020B3DE73B
:100D260009F608DFFA8046E709F208DFFA803E880E
:100D3600828C83E709F0A3DFFA8032E309F608DF45
:100D4600FA8078E309F208DFFA807088828C83E300
:100D560009F0A3DFFA806489828A83E0A3F608DFBC
:100D6600FA805889828A83E0A3F208DFFA804C80F1
:100D7600D280FA80C680D4806980F2803380108069
:100D8600A680EA809A80A880DA80E280CA803389C9
:100D9600828A83ECFAE493A3C8C582C8CCC583CC07
:100DA600F0A3C8C582C8CCC583CCDFE9DEE7800DD9
:100DB60089828A83E493A3F608DFF9ECFAA9F0EDB9
:100DC600FB2289828A83ECFAE0A3C8C582C8CCC517
:100DD60083CCF0A3C8C582C8CCC583CCDFEADEE8E5
:100DE60080DB89828A83E493A3F208DFF980CC88CA
:100DF600F0EF60010E4E60C388F0ED2402B40400EB
:100E060050B9F582EB2402B4040050AF2323458287
:100E160023900D7573BB010689828A83E0225002F6
:100E2600E722BBFE02E32289828A83E49322BB0186
:100E36000CE58229F582E5833AF583E0225006E93E
:100E46002582F8E622BBFE06E92582F8E222E58243
:100E560029F582E5833AF583E49322F8BB010DE593
:100E66008229F582E5833AF583E8F0225006E925E2
:100E760082C8F622BBFE05E92582C8F222BC000B19
:100E8600BE0029EF8DF084FFADF022E4CCF875F0BA
:100E960008EF2FFFEE33FEEC33FCEE9DEC98400599
:100EA600FCEE9DFE0FD5F0E9E4CEFD22EDF8F5F05F
:100EB600EE8420D21CFEADF075F008EF2FFFED3367
:100EC600FD4007985006D5F0F222C398FD0FD5F0E5
:100ED600EA22C5F0F8A3E028F0C5F0F8E58215820D
:100EE60070021583E038F022BB010A89828A83E00A
:100EF600F5F0A3E022500687F009E71922BBFE07AA
:100F0600E3F5F009E3192289828A83E493F5F07404
:100F1600019322BB010789828A83020ED8500B09EE
:100F2600C5F027F7C5F01937F722BBFE0D09F8E320
:100F360025F0F3C5F019E338F322F889828A837421
:100F4600019325F0C5F0F8E49338228B5F8A608917
:100F560061E4F565E55A60030210DA752B03752C1A
:100F660076F52D752F12753076753140120E1BFFF2
:100F7600700BAB62AA63A964120E1B700EAB62AA59
:100F860063A964120E1B7075EF6072AB5FAA60A94D
:100F960061120E1B600B752E808B668A67896880CE
:100FA6000C752EC0856266856367856468AB66AA24
:100FB60067A96812177A74322565F8A607AB66AA80
:100FC60067A968AF6505658F82758300120E346068
:100FD60007E565C3941040D5E565C39410501874B1
:100FE600072565F565E565C39417500B742B2565D4
:100FF600F8769B056580EEE4F5420210D1AB5FAA58
:1010060060A961120E1B70030210D1AB62AA63A91C
:1010160064120E1B70030210D1752E807542037583
:101026004376E4F5447545C07546127547767548AE
:1010360040AB5FAA60A96112177A74322565F8A6DB
:1010460007AB5FAA60A961AF6505658F82758300EE
:10105600120E346007E565C3941040D5E565C39468
:1010660010501874072565F565E565C39417500B90
:10107600742B2565F8769B056580EEE4F565AB6215
:10108600AA63A96412177A74492565F8A607AB62A4
:10109600AA63A964AF6505658F82758300120E3455
:1010A6006007E565C3941040D5E565C394105018F4
:1010B600741E2565F565E565C3942E500B742B25C6
:1010C60065F8769B056580EEE4F559755A011208B8
:1010D600197F01227F0022C0E0C0F0C083C082C019
:1010E600D075D000C000C001C002C003C004C00556
:1010F600C006C007900253E07002A3E0700A900297
:1011060013F0A304F00211A5900208E070547F4684
:10111600FE12191F2086030211A57F3F12189F9009
:10112600020CEFF02402FEE433900205F0A3CEF0A9
:1011360090020AE475F001120ED89002087401F0CC
:10114600C3900206E09440900205E094005002C26B
:10115600AAD288E5E454F04406F5E4D2A800C28990
:10116600803D900209E0FBA3E0FAA3E0F9900205B6
:10117600A3E0F5727F3F1217BF90020CE0900000CB
:10118600F0900208E4F090020704F090020CE024CC
:1011960002F582E43400F583E0548090020DF0D02D
:1011A60007D006D005D004D003D002D001D000D09D
:1011B600D0D082D083D0F0D0E032C0E0C0F0C0837F
:1011C600C082C0D075D000C000C001C002C003C03C
:1011D60004C005C006C007900253E07002A3E07089
:1011E60059900213E0601B900215E0FBA3E0FAA3FE
:1011F600E0F9900210A3E0F56D7F3F121800C2AA35
:101206008063900215E0FBA3E0FAA3E0F9756D3C5C
:101216007F3F121800900216E475F03C120ED8902B
:101226000211E024C4F0900210E034FFF0900212A4
:10123600E014F07030A304F0802B900209E0FBA3C9
:10124600E0FAA3E0F975723B7F3F1217BF900206E2
:10125600E024C5F0900205E034FFF090020AE47540
:10126600F03B120ED8C28BD007D006D005D004D0E2
:1012760003D002D001D000D0D0D082D083D0F0D01D
:10128600E0328F5EE57775F017A42412F9741635EF
:10129600F0FA7BFF781B7C027D017E007F17120D22
:1012A600F5E55E24FE601C14602714605E2403606E
:1012B60003021349E577D3940050030213491577C7
:1012C600021349E57814FFE577C39F5076057780CA
:1012D6007290022CE0FBA3E0FAA3E0F9120EEEFFF7
:1012E60090022FE0FDD3EF9DE5F094004055E577A1
:1012F600700774FF75F0EC8047E577B4010774FF5B
:1013060075F09C803B74FFF5F0803590022CE0FB75
:10131600A3E0FAA3E0F9120EEEFFD3900231E09FAC
:10132600900230E095F0401BE577700575F014806B
:101336000FE577B40106E475F0648004E475F00106
:10134600120F190214FD758C96858C8A5389FC43FD
:101356008902438E04D28C43C18043E601D2AFE4B6
:10136600F55AF55BF55DC2A3000000000000000021
:1013760000D2A3752B07752C76F52D752E0C752FBF
:10138600217530A0753107753224F533120816E53C
:101396005A640160FA752B03752C76E4F52D752ECB
:1013A60080752F127530767531407F107832749BB8
:1013B600F608DFFC754203754376E4F5447545C0CF
:1013C6007546127547767548407F107849749BF6C6
:1013D60008DFFC7F10E4F559120816E55A6401602F
:1013E600FA2275F001120ED8AFF0FE8E5F8F60E420
:1013F600F561FBF562F563756427756510E5604573
:101406005F700A9002497430F0E4A3F0227A05ACCA
:1014160064AD65AE5FAF60120E838E628F63EB6460
:10142600016006E563456260267B01AE5FAF60AC96
:1014360064AD65120E838C5F8D60E5632430FFAE6C
:1014460061056174492EF582E43402F583EFF0AE4E
:1014560064AF657C007D0A120E838E648F65DAAFF9
:10146600AF61056174492FF582E43402F583E4F037
:101476002275817B0214B8020ABEE493A3F8E493B2
:10148600A34003F68001F208DFF48029E493A3F871
:101496005407240CC8C333C4540F4420C8834004E3
:1014A600F456800146F6DFE4800B010204081020A2
:1014B600408090183EE47E019360BCA3FF543F3009
:1014C600E509541FFEE493A360010ECF54C025E046
:1014D60060A840B8E493A3FAE493A3F8E493A3C8FE
:1014E600C582C8CAC583CAF0A3C8C582C8CAC5838F
:1014F600CADFE9DEE780BEE57775F017A42412F9A6
:10150600741635F0FA7BFF78327C027D017E007F0F
:1015160017120DF5E57724FD60250470339002530C
:10152600E07004A3E06401700B7562FF75631575C6
:1015360064FA80397562FF7563157564FD802E75D2
:1015460062FF7563167564097BFF7A16790080233E
:10155600900243E0FBA3E0FAA3E0F9120EEEFFAE21
:10156600F01213F17562017563027564497B017AA5
:10157600027932120F5122C2EDD2EC30EDFDAFBE30
:10158600EFD394607E0040027E01EFC3947B7D0022
:1015960050027D01ED5E60037F0322EFD394A47EAB
:1015A6000040027E01EFC394BF7D0050027D01ED35
:1015B6005E60037F0422EFD394C47E0040027E0166
:1015C600EFC394DF7D0050027D01ED5E60037F0175
:1015D60022EFC394007E0040027E01EFC3943D7F5C
:1015E6000050027F01EF5E60037F02227F0030958C
:1015F600027F05225278005478005072657373207A
:10160600533100746F2073746172740053657420D3
:10161600706B742E206C656E677468000001024F53
:101626000A00FA4E756D626572206F6620706163FE
:101636006B6574730102516403E8526164696F203B
:101646004D6F6465000000000000000102530000B9
:101656000153746172740000000000000000000075
:101666000000000000000000C0E0C0F0C083C0829F
:10167600C0D075D000C000C001C002C003C004C005
:1016860005C006C007E5C054F02440601324E0708E
:101696002AAF5D055D742B2FF8E6F5C2C2C5801B27
:1016A600155CE55C600DAF5D055D742B2FF8E6F506
:1016B600C28008D2C4755B00120819C2C0D007D018
:1016C60006D005D004D003D002D001D000D0D0D0AF
:1016D60082D083D0F0D0E03290024FA3E090010296
:1016E600F0E4A3F090021BF0A37402F090024FE026
:1016F600FEA3E0FFD390021CE09F90021BE09E50E9
:101706002512172D90021BE0FCA3E02402F582743B
:10171600013CF583EFF090021CE004F070CE9002DD
:101726001BE004F080C622AC73AD74AE75AF76785C
:1017360010EC4D4E4F70047CA57DA5C3EC13FCED5B
:1017460013FDEE13FEEF13FF5010EC64CCFCED64BA
:101756004CFDEE644EFEEF64CEFFD8DF8C738D74C5
:101766008E758F76EE547FFE228E738F7474A5F578
:1017760075F57622856582758300120E34FFBF24C7
:10178600047F828033BF40047F80802CEF70047F0B
:101796009B8025EFD3941F4005EF94244016EFD38A
:1017A60094244005EF9440400BEFD394404009EF5A
:1017B600945B500474802FFF228B6F8A708971C2EC
:1017C600FA2081FDEF44C0F5A3A2FFE43360FAC21C
:1017D600FFE4FFEFC39572501EE4F5A3A2FFE433C6
:1017E60060FAC2FFAB6FAA70A9718F82758300E59C
:1017F600A3120E610F80DCD2FA228B6A8A6B896C87
:10180600C2FA2081FDEF4440F5A3A2FFE43360FA5B
:10181600C2FFE4FFEFC3956D501BAB6AAA6BA96CC0
:101826008F82758300120E34F5A3A2FFE43360FAAB
:10183600C2FF0F80DFD2FA2246024F000A00640080
:10184600000177000178044102040041021A0001F8
:101856007B044A0210000000000001010200004B58
:1018660002050000000001000000000000017A01EE
:1018760000209314E57A601EAF790579EFB46416FB
:10188600E4F57AF5797F0122AF790579EFB464063C
:10189600757A01E4F5797F0022C2FA2081FDEF44D2
:1018A60080F5A3A2FFE43360FAC2FFE4F5A3A2FF2A
:1018B600E43360FAC2FFAFA3D2FA225761697469B2
:1018C6006E6720666F7200646174610053656E74A2
:1018D6003A0052656365697665643A0022DDDDDDAE
:1018E600DD18E218E218E218E218E2090212000115
:1018F600010040320904000000FFFFFF00C2FA2089
:1019060081FD8FA3A2FFE43360FAC2FF8DA3A2FF7D
:10191600E43360FAC2FFD2FA2200000000000000A1
:1019260000000000000000EF1F70011E144E70E959
:1019360022C2FA2081FD8FA3A2FFE43360FAC2FF20
:10194600D2FA2275BC3C75E840D2EF75D1088FBB40
:1019560075BA1F220C001276272D3B1322F800625F
:10196600B610181D1CC700B0EA0A001F59883109B5
:08197600072906040500FFC269
:00000001FF
