:1008000002134D209314E575601EAF740574EFB4A8
:100810006416E4F575F5747F0122AF740574EFB4C6
:0B0820006406757501E4F5747F00228A
:03083B0002145054
:10084600E18C6416D28B618A628963120ABEFD7FCF
:100856000B12170EAB61AA62A963900001120AD7A8
:10086600FD7F0C12170EAB61AA62A96390000212FB
:100876000AD7FD7F0D12170EAB61AA62A96390001D
:1008860003120AD7FD7F0E12170EAB61AA62A96387
:10089600900004120AD7FD7F0F12170EAB61AA62F1
:1008A600A963900005120AD7FD7F1012170EAB61DF
:1008B600AA62A963900006120AD7FD7F1112170ECD
:1008C600AB61AA62A963900007120AD7FD7F1212D4
:1008D600170EAB61AA62A963900008120AD7FD7FC2
:1008E6001312170EAB61AA62A963900009120AD708
:1008F600FD7F1412170EAB61AA62A96390000A125B
:100906000AD7FD7F0A12170EAB61AA62A96390008F
:100916000B120AD7FD7F1512170EAB61AA62A963E7
:1009260090000C120AD7FD7F2112170EAB61AA6246
:10093600A96390000D120AD7FD7F2212170EAB6134
:10094600AA62A96390000E120AD7FD7F1812170E2D
:10095600AB61AA62A96390000F120AD7FD7F191234
:10096600170EAB61AA62A963900010120AD7FD7F29
:100976001A12170EAB61AA62A963900011120AD768
:10098600FD7F1B12170EAB61AA62A96390001212BB
:100996000AD7FD7F1C12170EAB61AA62A9639000ED
:1009A60013120AD7FD7F1D12170EAB61AA62A96347
:1009B600900014120AD7FD7F2312170EAB61AA62AC
:1009C600A963900015120AD7FD7F2412170EAB619A
:1009D600AA62A963900016120AD7FD7F2512170E88
:1009E600AB61AA62A963900017120AD7FD7F26128F
:1009F600170EAB61AA62A963900018120AD7FD7F91
:100A06002912170EAB61AA62A963900019120AD7C0
:100A1600FD7F2C12170EAB61AA62A96390001A1211
:100A26000AD7FD7F2D12170EAB61AA62A96390004B
:100A36001B120AD7FD7F2E12170EAB61AA62A9639D
:100A460090001C120AD7FD7F0312170EAB61AA6233
:100A5600A96390001D120AD7FDE4FF12170EAB61C1
:100A6600AA62A96390001E120AD7FD7F0212170E12
:100A7600AB61AA62A96390001F120AD7FD7F071215
:100A8600170EAB61AA62A963900020120AD7FD7FF8
:100A96000812170EAB61AA62A963900021120AD749
:100AA600FD7F0912170EAB61AA62A963900022129C
:100AB6000AD7FD7F0602170EBB010689828A83E0EC
:100AC600225002E722BBFE02E32289828A83E49354
:100AD60022BB010CE58229F582E5833AF583E02203
:100AE6005006E92582F8E622BBFE06E92582F8E2F1
:100AF60022E58229F582E5833AF583E49322BB0158
:100B06000689828A83F0225002F722BBFE01F32275
:100B1600F8BB010DE58229F582E5833AF583E8F015
:100B2600225006E92582C8F622BBFE05E92582C8C1
:100B3600F22275F008758200EF2FFFEE33FECD33FB
:100B4600CDCC33CCC58233C5829BED9AEC99E58238
:100B560098400CF582EE9BFEED9AFDEC99FC0FD5C4
:100B6600F0D6E4CEFBE4CDFAE4CCF9A88222B800B4
:100B7600C1B90059BA002DEC8BF084CFCECDFCE57F
:100B8600F0CBF97818EF2FFFEE33FEED33FDEC33A3
:100B9600FCEB33FB10D703994004EB99FB0FD8E528
:100BA600E4F9FA227818EF2FFFEE33FEED33FDEC71
:100BB60033FCC933C910D7059BE99A4007EC9BFC67
:100BC600E99AF90FD8E0E4C9FAE4CCFB2275F010F3
:100BD600EF2FFFEE33FEED33FDCC33CCC833C81018
:100BE600D7079BEC9AE899400AED9BFDEC9AFCE846
:100BF60099F80FD5F0DAE4CDFBE4CCFAE4C8F92293
:100C0600EB9FF5F0EA9E42F0E99D42F0E89C45F044
:100C1600227401FF3395E0FEFDFCA3A3A3E02FFFA2
:100C2600F0E582158270021583E03EFEF0E582153E
:100C36008270021583E03DFDF0E582158270021593
:100C460083E03CFCF022A8828583F0D083D0821218
:100C56000C63120C63120C63120C63E473E493A32B
:100C6600C583C5F0C583C8C582C8F0A3C583C5F0D2
:100C7600C583C8C582C8228B618A628963E4F56729
:100C8600E55A6003020E06752B03752C76F52D7555
:100C96002F12753076753140120ABEFF700BAB64A9
:100CA600AA65A966120ABE700EAB64AA65A9661289
:100CB6000ABE7075EF6072AB61AA62A963120ABEC2
:100CC600600B752E808B688A69896A800C752EC0C8
:100CD60085646885656985666AAB68AA69A96A12CA
:100CE60015C174322567F8A607AB68AA69A96AAF69
:100CF6006705678F82758300120AD76007E567C3A9
:100D0600941040D5E567C39410501874072567F50D
:100D160067E567C39417500B742B2567F8769B0518
:100D26006780EEE4F542020DFDAB61AA62A963128B
:100D36000ABE7003020DFDAB64AA65A966120ABE5F
:100D46007003020DFD752E80754203754376E4F53A
:100D5600447545C0754612754776754840AB61AA1D
:100D660062A9631215C174322567F8A607AB61AA9A
:100D760062A963AF6705678F82758300120AD76021
:100D860007E567C3941040D5E567C39410501874FF
:100D9600072567F567E567C39417500B742B25671E
:100DA600F8769B056780EEE4F567AB64AA65A966ED
:100DB6001215C174492567F8A607AB64AA65A9662A
:100DC600AF6705678F82758300120AD76007E567EC
:100DD600C3941040D5E567C394105018741E256758
:100DE600F567E567C3942E500B742B2567F8769B41
:100DF600056780EEE4F559755A011216B07F012297
:100E06007F00228B618A6289638D64E4F56CE569F3
:100E16006005756F028003E4F56F7F341217428513
:100E26006773AB66AD65AF641214C0E5686058F5CC
:100E36006DE4F56EF56BE56D256FFFE433FEC3E5F6
:100E46006B9FEE6480F87480984003020F0DE4F502
:100E56006A3081FDE56C25E0F56C208605536CFE55
:100E66008003436C012081FD056AE56AB408E2ABA4
:100E760061AA62A963AF6E056E8F82758300E56C09
:100E8600120B16056B80AF756E01E4F56A3081FDB5
:100E9600E56D25E0F56D208605536DFE8003436DF7
:100EA600012081FD056AE56AB408E2E4F56BE56DAB
:100EB600256FFFE433FEC3E56B9FEE6480F8748014
:100EC600985039E4F56A3081FDE56C25E0F56C2033
:100ED6008605536CFE8003436C012081FD056AE59F
:100EE6006AB408E2AB61AA62A963AF6E056E8F822F
:100EF600758300E56C120B16056B80B2AB61AA62B6
:100F0600A963E56D120B047F36121742E569604846
:100F160074FF90003CF0A3F0E4F56AE56AC3956EB1
:100F26005027AB61AA62A963856A82758300120A9B
:100F3600D7FF90003CE0FCA3E0FD12160690003CB3
:100F4600EEF0A3EFF0056A80D290003CE07002A3B9
:100F5600E07F0070057F01227F0122E4900032F0DD
:100F6600A3F0A3120C4C00000000900038120C4CA9
:100F760000000000E4F55EF55FF56075E10775E2D7
:100F8600C175A43F75A59075A69975F2BB75F3FD5D
:100F960075D4C075D54C75D6021212B17564FF753D
:100FA60065167566547BFF7A167948120C7D7F09A3
:100FB60012175475A14075F80875A20143F801D2BD
:100FC600FA7F017E0012172AC2FA7F017E001217ED
:100FD6002AD2FA7F297E0012172AC2FA2081FD75CD
:100FE600A330A2FFE43360FAC2FFD2FAE4FD7F0524
:100FF6001215727BFF7A17796512084B7D0B7F01FC
:1010060012170E901788E493FD7F3E12170E7FFA93
:101016007E0012172A1213D3900032EFF0A3E06F6E
:101026006008900032E0FF121522900032E0A3F033
:10103600121685EF60D890000DE014603D1470F62E
:101046007B017A00790E7565917566D3756791E4B3
:10105600F5687569017DD3120E09EF60E3900034DF
:10106600120C171211E87564017565007566007B30
:10107600FF7A167963120C7D80C643A440120803DA
:10108600EF60FA7B017A0079227565087566017D45
:101096000E1210B7900038120C171211E875640181
:1010A6007565007566007BFF7A16796D120C7D807A
:1010B600CC8B618A6289638D64E4F568F56AE566BE
:1010C600606E74FF90003CF0A3F0856567E56424CC
:1010D600FEFFE567C39F5027AB61AA62A9638567D8
:1010E60082758300120AD7FF90003CE0FCA3E0FD66
:1010F60012160690003CEEF0A3EFF0056780CE9046
:10110600003CE0FFE5647C0024FEF582EC34FFF54C
:1011160083AB61AA62A963EF120B1690003CA3E0B1
:10112600FFE56424FFF582EC34FFF583EF120B161E
:10113600AB61AA62A963120ABEF5695480C413138F
:101146001354017004C2868002D286E56925E0F553
:10115600697F351217427567013081FDE569548054
:10116600C413131354017004C2868002D286E56943
:1011760025E0F5692081FD0567E567B408DB756A3A
:1011860001E56AC39564503DAB61AA62A963856AAD
:1011960082758300120AD7F568E4F5673081FDE5AC
:1011A600685480C413131354017004C2868002D29B
:1011B60086E56825E0F5682081FD0567E567B408E2
:1011C600DB056A80BC3081FD2081FDC286E4F567BF
:1011D6003081FD2081FD0567E567B40DF37F36029A
:1011E60017428F648E638D628C61E4F566F567F550
:1011F60068F569F56D756CCA756B9A756A3BFFFE85
:10120600FDFCAB64AA63A962A861C3120C06700A4E
:101216009000007430F0E4A3F02275650AAB6DAA65
:101226006CA96BA86AAF64AE63AD62AC61120B7455
:101236008E688F69E56764016006E5694568603B0D
:10124600756701AF64AE63AD62AC61AB6DAA6CA9A4
:101256006BA86A120B74AC00AD01AE02AF038F64CB
:101266008E638D628C61E5692430FFAE6605667417
:10127600002EF582E43400F583EFF0AF6DAE6CAD71
:101286006BAC6AE47B0AFAF9F8120B748F6D8E6CFC
:101296008D6B8C6A1565E5657083AF6605667400AF
:1012A6002FF582E43400F583E4F022758C96858C64
:1012B6008A5389FC438902438E04D28C43C18043FE
:1012C600E601D2AFE4F55AF55BF55DC2A300000076
:1012D600000000000000D2A3752B07752C76F52DB3
:1012E600752E0C752F217530A0753107753224F5D2
:1012F600331216ADE55A640160FA752B03752C7628
:10130600E4F52D752E80752F127530767531407F78
:10131600107832749BF608DFFC754203754376E459
:10132600F5447545C07546127547767548407F1079
:101336007849749BF608DFFC7F10E4F5591216AD68
:10134600E55A640160FA2275817702138E020F61F5
:10135600E493A3F8E493A34003F68001F208DFF4D4
:101366008029E493A3F85407240CC8C333C4540F4C
:101376004420C8834004F456800146F6DFE4800B1F
:1013860001020408102040809016F2E47E0193606A
:10139600BCA3FF543F30E509541FFEE493A360014C
:1013A6000ECF54C025E060A840B8E493A3FAE493B6
:1013B600A3F8E493A3C8C582C8CAC583CAF0A3C864
:1013C600C582C8CAC583CADFE9DEE780BEC2EDD2E0
:1013D600EC30EDFDAFBEEFD394607E0040027E019F
:1013E600EFC3947B7D0050027D01ED5E60037F03B9
:1013F60022EFD394A47E0040027E01EFC394BF7D0A
:101406000050027D01ED5E60037F0422EFD394C499
:101416007E0040027E01EFC394DF7D0050027D0115
:10142600ED5E60037F0122EFC394007E0040027EE2
:1014360001EFC3943D7F0050027F01EF5E60037FA2
:1014460002227F003095027F0522C0E0C0F0C083F3
:10145600C082C0D075D000C000C001C002C003C0A9
:1014660004C005C006C007E5C054F024406013243C
:10147600E0702AAF5D055D742B2FF8E6F5C2C2C594
:10148600801B155CE55C600DAF5D055D742B2FF868
:10149600E6F5C28008D2C4755B001216B0C2C0D091
:1014A60007D006D005D004D003D002D001D000D09A
:1014B600D0D082D083D0F0D0E0328F70E925E0F929
:1014C600EA20E7055301FE8003430101EA25E0FA1D
:1014D600EC20E7055302FE8003430201EC25E0FC05
:1014E600EE20E7055304FE80034304013081FDEE40
:1014F60025E0FE2086055306FE8003430601208173
:10150600FDE9B5700DEAB50509ECB50305EE6573A1
:1015160060047F0180027F00EF70A122EF24FC604F
:101526002604704790000DE0FF64026003EF703BF5
:1015360090000D7401F07564007565007566007B9A
:10154600FF7A167973802190000DE0FF6401600335
:10155600EF701890000D7402F075640075650075E3
:1015660066007BFF7A16797C120C7D22EF146015DB
:1015760014601714601914601E146020240570226C
:10158600758D30801D758D988018758DCC8013757E
:101596008DB2438E01800B758D308003758D984317
:1015A6008E08D28E438920ED54F0F598ED540FFF46
:1015B600BF0105D2ACD2AF22D2992285678275834C
:1015C60000120AD7FFBF24047F828033BF40047F06
:1015D60080802CEF70047F9B8025EFD3941F4005FD
:1015E600EF94244016EFD394244005EF9440400B2B
:1015F600EFD394404009EF945B500474802FFF2290
:101606008C708D71AB07E4FDE5705480FFEB548060
:10161600F582EF65826013E57125E0FFE5703364BE
:1016260080F570EF6405F571800BE57125E0F571C5
:10163600E57033F570EB25E0FB0DBD08CBAE70AF62
:10164600712253656C656374204D6F646500557334
:10165600696E67204A6F79737469636B00526563BC
:1016660065697665643A0053656E743A004D6F6439
:10167600653A205478004D6F64653A205278003000
:101686009514E577601EAF760576EFB46416E4F53B
:1016960077F5767F0122AF760576EFB46406757727
:1016A60001E4F5767F0022755A01E55A601CE55B78
:1016B6007018AF5D055D742B2FF8E6F55C60067556
:1016C6005B01D2C522E4F55AF55D2222DDDDDDDDC2
:1016D60016D116D116D116D116D109021200010162
:1016E6000040320904000000FFFFFF004E002255B3
:1016F600555555D391D39103414243000041000D06
:101706000001750101770100C2FA2081FD8FA3A2B5
:10171600FFE43360FAC2FF8DA3A2FFE43360FAC28E
:10172600FFD2FA22000000000000000000000000C6
:101736000000EF1F70011E144E70E922C2FA2081CC
:10174600FD8FA3A2FFE43360FAC2FFD2FA2275BC72
:101756003C75E840D2EF75D1088FBB75BA1F2208D9
:10176600002162765BF80022F80047B610181D1CAF
:10177600C700B2EA2A001F59813509070B0C00126F
:0317860000FF8ED3
:00000001FF
