:10000000020B5F209314E553601EAF520552EFB40C
:100010006416E4F553F5527F0122AF520552EFB456
:0B0020006406755301E4F5527F0022D6
:10003B00020C688B3F8A4089411202B1FD7F0B1283
:10004B000F05AB3FAA40A9419000011202CAFD7FE8
:10005B000C120F05AB3FAA40A9419000021202CA35
:10006B00FD7F0D120F05AB3FAA40A9419000031273
:10007B0002CAFD7F0E120F05AB3FAA40A9419000AB
:10008B00041202CAFD7F0F120F05AB3FAA40A94114
:10009B009000051202CAFD7F10120F05AB3FAA405C
:1000AB00A9419000061202CAFD7F11120F05AB3F4A
:1000BB00AA40A9419000071202CAFD7F12120F0538
:1000CB00AB3FAA40A9419000081202CAFD7F131250
:1000DB000F05AB3FAA40A9419000091202CAFD7F50
:1000EB0014120F05AB3FAA40A94190000A1202CA95
:1000FB00FD7F0A120F05AB3FAA40A94190000B12DE
:10010B0002CAFD7F15120F05AB3FAA40A941900013
:10011B000C1202CAFD7F21120F05AB3FAA40A94169
:10012B0090000D1202CAFD7F22120F05AB3FAA40B1
:10013B00A94190000E1202CAFD7F18120F05AB3FAA
:10014B00AA40A94190000F1202CAFD7F19120F0598
:10015B00AB3FAA40A9419000101202CAFD7F1A12B0
:10016B000F05AB3FAA40A9419000111202CAFD7FB7
:10017B001B120F05AB3FAA40A9419000121202CAF5
:10018B00FD7F1C120F05AB3FAA40A9419000131233
:10019B0002CAFD7F1D120F05AB3FAA40A94190007B
:1001AB00141202CAFD7F23120F05AB3FAA40A941CF
:1001BB009000151202CAFD7F24120F05AB3FAA4017
:1001CB00A9419000161202CAFD7F25120F05AB3F05
:1001DB00AA40A9419000171202CAFD7F26120F05F3
:1001EB00AB3FAA40A9419000181202CAFD7F291209
:1001FB000F05AB3FAA40A9419000191202CAFD7F1F
:10020B002C120F05AB3FAA40A94190001A1202CA4B
:10021B00FD7F2D120F05AB3FAA40A94190001B1289
:10022B0002CAFD7F2E120F05AB3FAA40A9419000D9
:10023B001C1202CAFD7F03120F05AB3FAA40A94156
:10024B0090001D1202CAFDE4FF120F05AB3FAA403E
:10025B00A94190001E1202CAFD7F02120F05AB3F8F
:10026B00AA40A94190001F1202CAFD7F07120F0579
:10027B00AB3FAA40A9419000201202CAFD7F081291
:10028B000F05AB3FAA40A9419000211202CAFD7F86
:10029B0009120F05AB3FAA40A9419000221202CAD6
:1002AB00FD7F06020F05BB010689828A83E022507F
:1002BB0002E722BBFE02E32289828A83E49322BBFC
:1002CB00010CE58229F582E5833AF583E02250069D
:1002DB00E92582F8E622BBFE06E92582F8E222E553
:1002EB008229F582E5833AF583E49322BB010689E3
:1002FB00828A83F0225002F722BBFE01F322F8BB65
:10030B00010DE58229F582E5833AF583E8F0225069
:10031B0006E92582C8F622BBFE05E92582C8F22232
:10032B0075F008758200EF2FFFEE33FECD33CDCC89
:10033B0033CCC58233C5829BED9AEC99E58298400C
:10034B000CF582EE9BFEED9AFDEC99FC0FD5F0D6E9
:10035B00E4CEFBE4CDFAE4CCF9A88222B800C1B913
:10036B000059BA002DEC8BF084CFCECDFCE5F0CB51
:10037B00F97818EF2FFFEE33FEED33FDEC33FCEB8A
:10038B0033FB10D703994004EB99FB0FD8E5E4F945
:10039B00FA227818EF2FFFEE33FEED33FDEC33FC32
:1003AB00C933C910D7059BE99A4007EC9BFCE99A26
:1003BB00F90FD8E0E4C9FAE4CCFB2275F010EF2F6B
:1003CB00FFEE33FEED33FDCC33CCC833C810D7076B
:1003DB009BEC9AE899400AED9BFDEC9AFCE899F8A6
:1003EB000FD5F0DAE4CDFBE4CCFAE4C8F922EB9FAD
:1003FB00F5F0EA9E42F0E99D42F0E89C45F022744C
:10040B0001FF3395E0FEFDFCA3A3A3E02FFFF0E576
:10041B0082158270021583E03EFEF0E58215827034
:10042B00021583E03DFDF0E582158270021583E035
:10043B003CFCF022A8828583F0D083D08212045634
:10044B00120456120456120456E473E493A3C583A4
:10045B00C5F0C583C8C582C8F0A3C583C5F0C583E5
:10046B00C8C582C8228B3F8A408941E4F545E537F0
:10047B0060030205F9750803750976F50A750C1208
:10048B00750D76750E401202B1FF700BAB42AA438D
:10049B00A9441202B1700EAB42AA43A9441202B195
:1004AB007075EF6072AB3FAA40A9411202B1600BAD
:1004BB00750B808B468A478948800C750BC085422B
:1004CB0046854347854448AB46AA47A948120DD9F0
:1004DB00740F2545F8A607AB46AA47A948AF4505B3
:1004EB00458F827583001202CA6007E545C39410DD
:1004FB0040D5E545C39410501874072545F545E5DF
:10050B0045C39417500B74082545F8769B05458019
:10051B00EEE4F51F0205F0AB3FAA40A9411202B170
:10052B0070030205F0AB42AA43A9441202B1700357
:10053B000205F0750B80751F03752076E4F52175A8
:10054B0022C0752312752476752540AB3FAA40A9AE
:10055B0041120DD9740F2545F8A607AB3FAA40A948
:10056B0041AF4505458F827583001202CA6007E5CE
:10057B0045C3941040D5E545C39410501874072516
:10058B0045F545E545C39417500B74082545F8769A
:10059B009B054580EEE4F545AB42AA43A944120DF9
:1005AB00D974262545F8A607AB42AA43A944AF4503
:1005BB0005458F827583001202CA6007E545C39417
:1005CB001040D5E545C394105018741E2545F545CC
:1005DB00E545C3942E500B74082545F8769B0545CD
:1005EB0080EEE4F536753701120EC87F01227F00CD
:1005FB0022E4900032F0A3F0A312043F00000000AD
:10060B0090003812043F00000000E4F53BF53CF588
:10061B003D53D9BFF5B943B980F53E053EE53EB430
:10062B0014F943B9C0E5B930E5FB43A90275B283B0
:10063B0075E10775E2C175A43F75A59075A699750F
:10064B00F2BB75F3FD75D4C075D54C75D602120A85
:10065B00C37542FF75430E75446C7BFF7A0E796050
:10066B001204707F09120F4B75A14075F80875A223
:10067B000143F801D2FA7F017E00120F21C2FA7FEB
:10068B00017E00120F21D2FA7F297E00120F21C2A8
:10069B00FA2081FD75A330A2FFE43360FAC2FFD2CA
:1006AB00FAE4FD7F05120D8A7BFF7A0F795C12004D
:1006BB003E7D0B7F01120F05900F7FE493FD7F3E74
:1006CB00120F057FFA7E00120F21120BEB900032F6
:1006DB00EFF0A3E06F6008900032E0FF120D3A904C
:1006EB000032E0A3F0120E9DEF60D890000DE014E5
:1006FB00603D1470F67B017A00790E754391754459
:10070B00D3754591E4F5467547017DD3120771EF1B
:10071B0060E390003412040A1209FA754201754322
:10072B00007544007BFF7A0E797B12047080C64300
:10073B00A440120003EF60FA7B017A007922754323
:10074B00087544017D0E1208C990003812040A1274
:10075B0009FA7542017543007544007BFF7A0E79E7
:10076B008512047080CC8B3F8A4089418D42E4F521
:10077B004AE5476005754D028003E4F54D7F341261
:10078B000F39854551AB44AD43AF42120CD8E5460A
:10079B006058F54BE4F54CF549E54B254DFFE4333B
:1007AB00FEC3E5499FEE6480F8748098400302080D
:1007BB0075E4F5483081FDE54A25E0F54A208605CC
:1007CB00534AFE8003434A012081FD0548E548B4A6
:1007DB0008E2AB3FAA40A941AF4C054C8F82758311
:1007EB0000E54A120309054980AF754C01E4F54851
:1007FB003081FDE54B25E0F54B208605534BFE8004
:10080B0003434B012081FD0548E548B408E2E4F5BC
:10081B0049E54B254DFFE433FEC3E5499FEE64806C
:10082B00F87480985039E4F5483081FDE54A25E0AD
:10083B00F54A208605534AFE8003434A012081FD79
:10084B000548E548B408E2AB3FAA40A941AF4C05C7
:10085B004C8F82758300E54A120309054980B2ABC0
:10086B003FAA40A941E54B1202F77F36120F39E53B
:10087B0047604874FF90003CF0A3F0E4F548E5486E
:10088B00C3954C5027AB3FAA40A94185488275833D
:10089B00001202CAFF90003CE0FCA3E0FD120E1E0A
:1008AB0090003CEEF0A3EFF0054880D290003CE0C6
:1008BB007002A3E07F0070057F01227F01228B3F36
:1008CB008A4089418D42E4F546F548E544606E74F3
:1008DB00FF90003CF0A3F0854345E54224FEFFE585
:1008EB0045C39F5027AB3FAA40A9418545827583DD
:1008FB00001202CAFF90003CE0FCA3E0FD120E1EAA
:10090B0090003CEEF0A3EFF0054580CE90003CE06C
:10091B00FFE5427C0024FEF582EC34FFF583AB3F10
:10092B00AA40A941EF12030990003CA3E0FFE54266
:10093B0024FFF582EC34FFF583EF120309AB3FAADA
:10094B0040A9411202B1F5475480C413131354014B
:10095B007004C2868002D286E54725E0F5477F35D5
:10096B00120F397545013081FDE5475480C41313CF
:10097B001354017004C2868002D286E54725E0F548
:10098B00472081FD0545E545B408DB754801E54881
:10099B00C39542503DAB3FAA40A941854882758320
:1009AB00001202CAF546E4F5453081FDE546548058
:1009BB00C413131354017004C2868002D286E54619
:1009CB0025E0F5462081FD0545E545B408DB0548E6
:1009DB0080BC3081FD2081FDC286E4F5453081FD70
:1009EB002081FD0545E545B40DF37F36020F398FA8
:1009FB00428E418D408C3FE4F544F545F546F54775
:100A0B00F54B754ACA75499A75483BFFFEFDFCAB21
:100A1B0042AA41A940A83FC31203F9700A900000F3
:100A2B007430F0E4A3F02275430AAB4BAA4AA949F0
:100A3B00A848AF42AE41AD40AC3F1203678E468F24
:100A4B0047E54564016006E5474546603B75450152
:100A5B00AF42AE41AD40AC3FAB4BAA4AA949A84807
:100A6B00120367AC00AD01AE02AF038F428E418D16
:100A7B00408C3FE5472430FFAE44054474002EF50F
:100A8B0082E43400F583EFF0AF4BAE4AAD49AC488E
:100A9B00E47B0AFAF9F81203678F4B8E4A8D498C67
:100AAB00481543E5437083AF44054474002FF5822A
:100ABB00E43400F583E4F022758C96858C8A538997
:100ACB00FC438902438E04D28C43C18043E601D29E
:100ADB00AFE4F537F538F53AC2A30000000000008B
:100AEB00000000D2A3750807750976F50A750B0C83
:100AFB00750C21750DA0750E07750F24F510120ED0
:100B0B00C5E537640160FA750803750976E4F50AE3
:100B1B00750B80750C12750D76750E407F10780F66
:100B2B00749BF608DFFC751F03752076E4F52175C1
:100B3B0022C07523127524767525407F1078267494
:100B4B009BF608DFFC7F10E4F536120EC5E5376423
:100B5B000160FA22787FE4F6D8FD758155020BA669
:100B6B000205FCE493A3F8E493A34003F68001F29F
:100B7B0008DFF48029E493A3F85407240CC8C3338B
:100B8B00C4540F4420C8834004F456800146F6DF5A
:100B9B00E4800B0102040810204080900EE9E47EF3
:100BAB00019360BCA3FF543F30E509541FFEE4934F
:100BBB00A360010ECF54C025E060A840B8E493A316
:100BCB00FAE493A3F8E493A3C8C582C8CAC583CA41
:100BDB00F0A3C8C582C8CAC583CADFE9DEE780BEF9
:100BEB00C2EDD2EC30EDFDAFBEEFD394607E004092
:100BFB00027E01EFC3947B7D0050027D01ED5E60B0
:100C0B00037F0322EFD394A47E0040027E01EFC347
:100C1B0094BF7D0050027D01ED5E60037F0422EFE7
:100C2B00D394C47E0040027E01EFC394DF7D00505D
:100C3B00027D01ED5E60037F0122EFC394007E0015
:100C4B0040027E01EFC3943D7F0050027F01EF5EB7
:100C5B0060037F02227F003095027F0522C0E0C037
:100C6B00F0C083C082C0D075D000C000C001C002EC
:100C7B00C003C004C005C006C007E5C054F0244043
:100C8B00601324E0702AAF3A053A74082FF8E6F5A2
:100C9B00C2C2C5801B1539E539600DAF3A053A74F0
:100CAB00082FF8E6F5C28008D2C4753800120EC8BA
:100CBB00C2C0D007D006D005D004D003D002D001DB
:100CCB00D000D0D0D082D083D0F0D0E0328F4EE99C
:100CDB0025E0F9EA20E7055301FE8003430101EA11
:100CEB0025E0FAEC20E7055302FE8003430201ECFA
:100CFB0025E0FCEE20E7055304FE8003430401309E
:100D0B0081FDEE25E0FE2086055306FE800343069B
:100D1B00012081FDE9B54E0DEAB50509ECB50305DA
:100D2B00EE655160047F0180027F00EF70A122EF1E
:100D3B0024FC602604704790000DE0FF6402600302
:100D4B00EF703B90000D7401F07542007543007518
:100D5B0044007BFF7A0E798B802190000DE0FF64BD
:100D6B00016003EF701890000D7402F0754200756E
:100D7B0043007544007BFF7A0E799412047022EFC6
:100D8B0014601514601714601914601E146020246D
:100D9B00057022758D30801D758D988018758DCCE2
:100DAB008013758DB2438E01800B758D308003756A
:100DBB008D98438E08D28E438920ED54F0F598ED33
:100DCB00540FFFBF0105D2ACD2AF22D29922854579
:100DDB00827583001202CAFFBF24047F828033BF57
:100DEB0040047F80802CEF70047F9B8025EFD39491
:100DFB001F4005EF94244016EFD394244005EF9445
:100E0B0040400BEFD394404009EF945B5004748047
:100E1B002FFF228C4E8D4FAB07E4FDE54E5480FF28
:100E2B00EB5480F582EF65826013E54F25E0FFE51B
:100E3B004E336480F54EEF6405F54F800BE54F257F
:100E4B00E0F54FE54E33F54EEB25E0FB0DBD08CB42
:100E5B00AE4EAF4F2253656C656374204D6F646566
:100E6B00005573696E67204A6F79737469636B0001
:100E7B0052656365697665643A0053656E743A0032
:100E8B004D6F64653A205478004D6F64653A20527B
:100E9B007800309514E555601EAF540554EFB464DB
:100EAB0016E4F555F5547F0122AF540554EFB464A5
:100EBB0006755501E4F5547F0022753701E537605F
:100ECB001CE5387018AF3A053A74082FF8E6F53977
:100EDB006006753801D2C522E4F537F53A224E008B
:100EEB002255555555D391D39103414243000041AF
:100EFB00000D0001530101550100C2FA2081FD8F45
:100F0B00A3A2FFE43360FAC2FF8DA3A2FFE4336018
:100F1B00FAC2FFD2FA22000000000000000000001D
:100F2B0000000000EF1F70011E144E70E922C2FA80
:100F3B002081FD8FA3A2FFE43360FAC2FFD2FA2215
:100F4B0075BC3C75E840D2EF75D1088FBB75BA1FE5
:100F5B002208000C1D895BF81022F80047B6101808
:100F6B001D1CC700B2EA2A001F5981350B470B0C19
:050F7B00001200FF510F
:00000001FF
