:10000000020D900000000000000000000000000051
:1000100000EF1F70011E144E70E9220210D3EF4E44
:10002000600F90023CEEF0A3EFF0A37401F0E4A3A4
:10003000F0C2AF7F34121282D2AF22020F1F8B3E6A
:100040008A3F89401205E2FD7F0B12123CAB3EAAAB
:100050003FA9409000011205FBFD7F0C12123CAB42
:100060003EAA3FA9409000021205FBFD7F0D12122F
:100070003CAB3EAA3FA9409000031205FBFD7F0E5A
:1000800012123CAB3EAA3FA9409000041205FBFDB2
:100090007F0F12123CAB3EAA3FA94090000512050B
:1000A000FBFD7F1012123CAB3EAA3FA94090000618
:1000B0001205FBFD7F1112123CAB3EAA3FA94090F6
:1000C00000071205FBFD7F1212123CAB3EAA3FA9AE
:1000D000409000081205FBFD7F1312123CAB3EAAB4
:1000E0003FA9409000091205FBFD7F1412123CABA2
:1000F0003EAA3FA94090000A1205FBFD7F0A12129A
:100100003CAB3EAA3FA94090000B1205FBFD7F15BA
:1001100012123CAB3EAA3FA94090000C1205FBFD19
:100120007F2112123CAB3EAA3FA94090000D120560
:10013000FBFD7F2212123CAB3EAA3FA94090000E6D
:100140001205FBFD7F1812123CAB3EAA3FA940905E
:10015000000F1205FBFD7F1912123CAB3EAA3FA90E
:10016000409000101205FBFD7F1A12123CAB3EAA14
:100170003FA9409000111205FBFD7F1B12123CAB02
:100180003EAA3FA9409000121205FBFD7F1C1212EF
:100190003CAB3EAA3FA9409000131205FBFD7F1D1A
:1001A00012123CAB3EAA3FA9409000141205FBFD81
:1001B0007F2312123CAB3EAA3FA9409000151205C6
:1001C000FBFD7F2412123CAB3EAA3FA940900016D3
:1001D0001205FBFD7F2512123CAB3EAA3FA94090C1
:1001E00000171205FBFD7F2612123CAB3EAA3FA969
:1001F000409000181205FBFD7F2912123CAB3EAA6D
:100200003FA9409000191205FBFD7F2C12123CAB58
:100210003EAA3FA94090001A1205FBFD7F2D121245
:100220003CAB3EAA3FA94090001B1205FBFD7F2E70
:1002300012123CAB3EAA3FA94090001C1205FBFDE8
:100240007F0312123CAB3EAA3FA94090001D12054D
:10025000FBFDE4FF12123CAB3EAA3FA94090001EFA
:100260001205FBFD7F0212123CAB3EAA3FA9409053
:10027000001F1205FBFD7F0712123CAB3EAA3FA9EF
:10028000409000201205FBFD7F0812123CAB3EAAF5
:100290003FA9409000211205FBFD7F0912123CABE3
:1002A0003EAA3FA9409000221205FBFD7F060212E4
:1002B0003CE4900208F0A3F053D9BFF5B943B980EC
:1002C000F53D053DE53DB414F943B9C0E5B930E568
:1002D000FB43A90275B28375E10775E2C175A43FBE
:1002E00075A59075A69975F2BB75F3FD75D4C075AB
:1002F000D54C75D602120CF47F0912129475A140E8
:1003000075F80875A20143F801D2FA7F017E001248
:100310000003C2FA7F017E00120003D2FA7F297E19
:1003200000120003C2FA2081FD75A330A2FFE4335E
:1003300060FAC2FFD2FA7BFF7A1279A512003E90D2
:1003400012C8E493FD7F3E12123C121117758D6A9C
:10035000E4F58BF541FB7D047F01120F8F120ABD7E
:10036000E551606C14700302042114700302046AE6
:100370001470030204761470E77FFA7E0012000303
:10038000120EA2900206EFF0A3E06F600890020642
:10039000E0FF120B94900206E0A3F0E54DB404C018
:1003A000121186EF60BAD2AB90025AE07004A3E05B
:1003B000640170177551027542FF75431175445FF2
:1003C0007BFF7A11795312070C8095E4F5518090E8
:1003D000120FF2900208E475F001120693FED3901A
:1003E0000257E095F0900256E09E400D7551017F56
:1003F000FA7E001211F70203607F887E1312000359
:100400007542FF75431175446D7BFF7A1179641253
:10041000070CE4900208F0A3F0755104C2AB02038C
:1004200060900238E0600302036090024AE06023BB
:10043000900208E0FEA3E0FF120E1C754201754316
:100440000275444E7BFF7A11797612070CE4900214
:100450004A801190024DE07003020360E490024371
:10046000F090024DF0F551020360755103E4FFFE78
:1004700012001E02036090023FE0705390024BE0B6
:100480007003020360E4F0900248E0FEA3E0F5820E
:100490008E83E02402FDE433FCE5822DF582E583C2
:1004A0003CF583E030E722900000E475F00112068D
:1004B0007DAFF0FE120E1C75420175430275444E6D
:1004C0007BFF7A11797C12070C755102020360756B
:1004D00042FF75431175446D7BFF7A1179641207F1
:1004E0000CE490023FF0755104020360E709F6083E
:1004F000DFFA8046E709F208DFFA803E88828C83C3
:10050000E709F0A3DFFA8032E309F608DFFA807822
:10051000E309F208DFFA807088828C83E309F0A394
:10052000DFFA806489828A83E0A3F608DFFA8058C4
:1005300089828A83E0A3F208DFFA804C80D280FAB5
:1005400080C680D4806980F28033801080A680EAE3
:10055000809A80A880DA80E280CA803389828A8388
:10056000ECFAE493A3C8C582C8CCC583CCF0A3C879
:10057000C582C8CCC583CCDFE9DEE7800D89828ADD
:1005800083E493A3F608DFF9ECFAA9F0EDFB2289E6
:10059000828A83ECFAE0A3C8C582C8CCC583CCF0BC
:1005A000A3C8C582C8CCC583CCDFEADEE880DB897E
:1005B000828A83E493A3F208DFF980CC88F0EF60AD
:1005C000010E4E60C388F0ED2402B4040050B9F56A
:1005D00082EB2402B4040050AF232345822390050C
:1005E0003C73BB010689828A83E0225002E722BB6A
:1005F000FE02E32289828A83E49322BB010CE58216
:1006000029F582E5833AF583E0225006E92582F850
:10061000E622BBFE06E92582F8E222E58229F58280
:10062000E5833AF583E49322BC000BBE0029EF8DED
:10063000F084FFADF022E4CCF875F008EF2FFFEE68
:1006400033FEEC33FCEE9DEC984005FCEE9DFE0F76
:10065000D5F0E9E4CEFD22EDF8F5F0EE8420D21CD1
:10066000FEADF075F008EF2FFFED33FD4007985019
:1006700006D5F0F222C398FD0FD5F0EA22C5F0F8B6
:10068000A3E028F0C5F0F8E582158270021583E03A
:1006900038F022A3F8E0C5F025F0F0E5821582706D
:1006A000021583E0C838F0E822BB010A89828A83F8
:1006B000E0F5F0A3E022500687F009E71922BBFE1F
:1006C00007E3F5F009E3192289828A83E493F5F0C0
:1006D00074019322BB010789828A8302067D500B35
:1006E00009C5F027F7C5F01937F722BBFE0D09F849
:1006F000E325F0F3C5F019E338F322F889828A8301
:1007000074019325F0C5F0F8E49338228B3F8A40BA
:100710008941E4F545E537600302089575080375DE
:100720000976F50A750C12750D76750E401205E204
:10073000FF700BAB42AA43A9441205E2700EAB4214
:10074000AA43A9441205E27075EF6072AB3FAA405C
:10075000A9411205E2600B750B808B468A478948D8
:10076000800C750BC0854246854347854448AB469F
:10077000AA47A94812108E740F2545F8A607AB4664
:10078000AA47A948AF4505458F827583001205FB2E
:100790006007E545C3941040D5E545C39410501853
:1007A00074072545F545E545C39417500B74082596
:1007B00045F8769B054580EEE4F51F02088CAB3FBB
:1007C000AA40A9411205E2700302088CAB42AA4379
:1007D000A9441205E2700302088C750B80751F0393
:1007E000752076E4F5217522C0752312752476757F
:1007F0002540AB3FAA40A94112108E740F2545F841
:10080000A607AB3FAA40A941AF4505458F82758336
:10081000001205FB6007E545C3941040D5E545C3CC
:100820009410501874072545F545E545C3941750B5
:100830000B74082545F8769B054580EEE4F545AB3D
:1008400042AA43A94412108E74262545F8A607AB88
:1008500042AA43A944AF4505458F8275830012051E
:10086000FB6007E545C3941040D5E545C39410509F
:1008700018741E2545F545E545C3942E500B7408A4
:100880002545F8769B054580EEE4F536753701126F
:1008900011D67F01227F0022E4F53B90023EE0600A
:1008A0002790023CE07002A3E0601090023DE0243B
:1008B000FFF090023CE034FFF0800D7F3612128290
:1008C000E490023EF0A304F01212588F3CE53C5431
:1008D00070FFBF6003753B0190023FE0453B600C39
:1008E000E4900244F0A3F07F3A021282C2FA20811F
:1008F000FD75A3FFA2FFE43360FAC2FF85A33CE5C8
:100900003C540FFD7C0070030209D290024CE07051
:1009100041ED6401603CE4F5A3A2FFE43360FAC258
:10092000FF900248E0FEA3E0FFF5828E83E5A3F08E
:100930008F828E83E02402FEE433900244F0A3CE43
:10094000F0ED1D70011C900241E4F0A304F0900250
:100950004CF0ED4C6011900244E06C7003A3E06D2C
:100960006005ED1D70011CC3900245E09DF09002F2
:1009700044E09CF0ED1DAE0470011C4E6039E4F5BE
:10098000A3A2FFE43360FAC2FF900248E0FEA3E0B6
:10099000F5828E83C083C082900241E475F001121B
:1009A0000693FED082D083E58225F0F582E5833E72
:1009B000F583E5A3F080BDD2FA900244E07002A373
:1009C000E0700F90024CE0600990024B7401F0E47B
:1009D000A3F0D2FA2290023BE06033900239E0703B
:1009E00002A3E0701A90023BF090023804F07F35C9
:1009F000121282900243E0FD7F3F12123C800F9062
:100A0000023AE024FFF0900239E034FFF0221212A3
:100A10006D8F3BE53B547024907003020AA4245070
:100A20006003020AAFE53B540FFF900243E0FEC3B0
:100A30009F5004AF0680007410C39F50047F108045
:100A400011E53B540FFFEEC39F5007900243E0FFB8
:100A50008000AD07ED6065900243E0C39DF0C2FAEF
:100A60002081FD75A37FA2FFE43360FAC2FFAF05CA
:100A70001DEF6022900240E0FF04F0900246E0FA91
:100A8000A3E02FF582E43AF583E0F5A3A2FFE43377
:100A900060FAC2FF80D8D2FA900243E0701E900242
:100AA0004A04F0227F3B12128290024D7401F090B2
:100AB0000238E06007E53B54707001F022E54D75A7
:100AC000F017A42481F9740C35F0FA7BFF78217CAF
:100AD000027D017E007F171205BCE54D24FD605AA2
:100AE00014607924026003020B6D900258E07004D8
:100AF000A3E064017F08702112121AEF4440FD7FC9
:100B00000812123C7542FF75430C7544587B017AFC
:100B100002792112070CC2A02212121AEF54BFFD53
:100B20007F0812123C7542FF75430C7544607B01CF
:100B30007A02792112070CD2A02290025AE07004A6
:100B4000A3E06401700B7542FF75430C7544698026
:100B5000397542FF75430C75446C802E7542FF75E4
:100B6000430C7544787BFF7A0C796F8023900232B6
:100B7000E0FBA3E0FAA3E0F91206A9FFAEF0120E23
:100B80001C75420175430275444E7B017A0279213E
:100B900012070C228F3EE54D75F017A42481F974DD
:100BA0000C35F0FA7BFF780A7C027D017E007F170E
:100BB0001205BCE53E24FE601C14602714605E2410
:100BC000036003020C55E54DD394005003020C550D
:100BD000154D020C55E54E14FFE54DC39F507605AB
:100BE0004D807290021BE0FBA3E0FAA3E0F912062D
:100BF000A9FF90021EE0FDD3EF9DE5F09400405563
:100C0000E54D700774FF75F0EC8047E54DB40107C2
:100C100074FF75F09C803B74FFF5F0803590021BEB
:100C2000E0FBA3E0FAA3E0F91206A9FFD3900220AB
:100C3000E09F90021FE095F0401BE54D700575F0B8
:100C400014800FE54DB40106E475F0648004E4758A
:100C5000F0011206D4020ABD456E61626C65640043
:100C600044697361626C6564005278005478005086
:100C70007265737320533100746F207374617274E2
:100C80000053657420706B742E206C656E677468F9
:100C900000000102540A00FA4E756D626572206F01
:100CA00066207061636B6574730102566403E857D4
:100CB000686974656E696E670000000000000000DE
:100CC000010258000001526164696F204D6F646534
:100CD0000000000000000001025A0000015374618E
:100CE000727400000000000000000000000000001E
:100CF00000000000758C96858C8A5389FC4389021C
:100D0000438E04D28C43C18043E601D2AFE4F53771
:100D1000F538F53AC2A3000000000000000000D240
:100D2000A3750807750976F50A750B0C750C217506
:100D30000DA0750E07750F24F5101211D3E5376459
:100D40000160FA750803750976E4F50A750B80757C
:100D50000C12750D76750E407F10780F749BF60897
:100D6000DFFC751F03752076E4F5217522C075231D
:100D7000127524767525407F107826749BF608DF5F
:100D8000FC7F10E4F5361211D3E537640160FA22D6
:100D9000787FE4F6D8FD758151020DD70202B1E4E7
:100DA00093A3F8E493A34003F68001F208DFF480F4
:100DB00029E493A3F85407240CC8C333C4540F4444
:100DC00020C8834004F456800146F6DFE4800B011E
:100DD000020408102040809011AEE47E019360BCB4
:100DE000A3FF543F30E509541FFEE493A360010EB6
:100DF000CF54C025E060A840B8E493A3FAE493A3DD
:100E0000F8E493A3C8C582C8CAC583CAF0A3C8C5FD
:100E100082C8CAC583CADFE9DEE780BE8E3F8F4045
:100E2000E4F541FBF542F543754427754510E5406F
:100E3000453F700A90024E7430F0E4A3F0227A0528
:100E4000AC44AD45AE3FAF401206288E428F43EB17
:100E500064016006E543454260267B01AE3FAF403A
:100E6000AC44AD451206288C3F8D40E5432430FF4D
:100E7000AE410541744E2EF582E43402F583EFF065
:100E8000AE44AF457C007D0A1206288E448F45DAB9
:100E9000AFAF410541744E2FF582E43402F583E48F
:100EA000F022C2EDD2EC30EDFDAFBEEFD394607E08
:100EB0000040027E01EFC3947B7D0050027D01ED76
:100EC0005E60037F0322EFD394A47E0040027E0184
:100ED000EFC394BF7D0050027D01ED5E60037F048F
:100EE00022EFD394C47E0040027E01EFC394DF7DE5
:100EF0000050027D01ED5E60037F0122EFC394008C
:100F00007E0040027E01EFC3943D7F0050027F01CE
:100F1000EF5E60037F02227F003095027F0522C0D2
:100F2000E0C0F0C083C082C0D075D000C000C00156
:100F3000C002C003C004C005C006C007E5C054F02D
:100F40002440601324E0702AAF3A053A74082FF861
:100F5000E6F5C2C2C5801B1539E539600DAF3A050B
:100F60003A74082FF8E6F5C28008D2C4753800122A
:100F700011D6C2C0D007D006D005D004D003D0020D
:100F8000D001D000D0D0D082D083D0F0D0E0327E5B
:100F9000FCEF70085389FCEB4289800CBF010953B8
:100FA00089CFEBC454F04289EF7021EDD394034014
:100FB00005438E04800B538EFBE58E5206EE4DF5F5
:100FC0008EE5416004D2A9D2AFD28C22EF640170C9
:100FD00020EDD394034005438E08800B538EF7E534
:100FE0008E5206EE4DF58EE5416004D2ABD2AFD203
:100FF0008E22900254A3E0900104F0E4A3F090024A
:101000000AF0A37402F0900254E0FEA3E0FFD39034
:10101000020BE09F90020AE09E50251210419002C0
:101020000AE0FCA3E02404F58274013CF583EFF0B0
:1010300090020BE004F070CE90020AE004F080C64B
:1010400022AC49AD4AAE4BAF4C7810EC4D4E4F70D0
:10105000047CA57DA5C3EC13FCED13FDEE13FEEFA0
:1010600013FF5010EC64CCFCED644CFDEE644EFEBE
:10107000EF64CEFFD8DF8C498D4A8E4B8F4CEE54F7
:101080007FFE228E498F4A74A5F54BF54C2285458B
:10109000827583001205FBFFBF24047F828033BF6B
:1010A00040047F80802CEF70047F9B8025EFD394D9
:1010B0001F4005EF94244016EFD394244005EF948D
:1010C00040400BEFD394404009EF945B5004748090
:1010D0002FFF22C0E0C0F0C083C082C0D075D00016
:1010E000C000C001C002C003C004C005C006C007E4
:1010F000758D6A758B001209D5120898D007D00635
:10110000D005D004D003D002D001D000D0D0D082FE
:10111000D083D0F0D0E0329002467401F0A3740482
:10112000F0A37400F0A37402F0E4900238F090028F
:101130003BF090023FF090023EF090024AF0A3F0A4
:10114000900244F0A3F0900244F0A3F090024CF01F
:10115000A3F02257616974696E6720666F7200643C
:1011600061746100507265737320533100746F2095
:1011700073746172740053656E743A0052656365EE
:10118000697665643A00209314E550601EAF4F0500
:101190004FEFB46416E4F550F54F7F0122AF4F05D1
:1011A0004FEFB46406755001E4F54F7F002248020A
:1011B00054000A006400000000014D00014E054289
:1011C0000000000041020600410207000151040135
:1011D000500100753701E537601CE5387018AF3AEB
:1011E000053A74082FF8E6F5396006753801D2C55E
:1011F00022E4F537F53A229002407401F09002465D
:10120000E0FCA3E0F5828C83E0900243F090023989
:10121000EEF0A3EFF0A37401F022C2FA2081FDEFFB
:101220004480F5A3A2FFE43360FAC2FFE4F5A3A271
:10123000FFE43360FAC2FFAFA3D2FA22C2FA2081E0
:10124000FD8FA3A2FFE43360FAC2FF8DA3A2FFE4E7
:101250003360FAC2FFD2FA22C2FA2081FD75A3BD23
:10126000A2FFE43360FAC2FFD2FAAFA322C2FA208F
:1012700081FD75A33DA2FFE43360FAC2FFD2FAAF4D
:10128000A322C2FA2081FD8FA3A2FFE43360FAC239
:10129000FFD2FA2275BC3C75E840D2EF75D1088FB9
:1012A000BB75BA1F220A0010A7622D3B7322F800FB
:1012B00000B610181D1CC700B0EA2A001F5988315B
:0912C00009072906040500FF607E
:00000001FF
