:1008000002160400000000000000000000000000CC
:1008100000EF1F70011E144E70E9220218BBEF4E4C
:10082000600F90023CEEF0A3EFF0A37401F0E4A39C
:0E083000F0C2AF7F34121A8BD2AF220217072C
:10084600E18C641A258B608A618962120BB4FD7F84
:100856000B121A45AB60AA61A962900001120BCD7A
:10086600FD7F0C121A45AB60AA61A96290000212C4
:100876000BCDFD7F0D121A45AB60AA61A9629000EF
:1008860003120BCDFD7F0E121A45AB60AA61A96259
:10089600900004120BCDFD7F0F121A45AB60AA61C2
:1008A600A962900005120BCDFD7F10121A45AB60B0
:1008B600AA61A962900006120BCDFD7F11121A459E
:1008C600AB60AA61A962900007120BCDFD7F1212E0
:1008D6001A45AB60AA61A962900008120BCDFD7F94
:1008E60013121A45AB60AA61A962900009120BCDDA
:1008F600FD7F14121A45AB60AA61A96290000A1224
:100906000BCDFD7F0A121A45AB60AA61A962900061
:100916000B120BCDFD7F15121A45AB60AA61A962B9
:1009260090000C120BCDFD7F21121A45AB60AA6117
:10093600A96290000D120BCDFD7F22121A45AB6005
:10094600AA61A96290000E120BCDFD7F18121A45FE
:10095600AB60AA61A96290000F120BCDFD7F191240
:100966001A45AB60AA61A962900010120BCDFD7FFB
:100976001A121A45AB60AA61A962900011120BCD3A
:10098600FD7F1B121A45AB60AA61A9629000121284
:100996000BCDFD7F1C121A45AB60AA61A9629000BF
:1009A60013120BCDFD7F1D121A45AB60AA61A96219
:1009B600900014120BCDFD7F23121A45AB60AA617D
:1009C600A962900015120BCDFD7F24121A45AB606B
:1009D600AA61A962900016120BCDFD7F25121A4559
:1009E600AB60AA61A962900017120BCDFD7F26129B
:1009F6001A45AB60AA61A962900018120BCDFD7F63
:100A060029121A45AB60AA61A962900019120BCD92
:100A1600FD7F2C121A45AB60AA61A96290001A12DA
:100A26000BCDFD7F2D121A45AB60AA61A96290001D
:100A36001B120BCDFD7F2E121A45AB60AA61A9626F
:100A460090001C120BCDFD7F03121A45AB60AA6104
:100A5600A96290001D120BCDFDE4FF121A45AB6092
:100A6600AA61A96290001E120BCDFD7F02121A45E3
:100A7600AB60AA61A96290001F120BCDFD7F071221
:100A86001A45AB60AA61A962900020120BCDFD7FCA
:100A960008121A45AB60AA61A962900021120BCD1B
:100AA600FD7F09121A45AB60AA61A9629000221265
:100AB6000BCDFD7F06021A45E709F608DFFA8046E8
:100AC600E709F208DFFA803E88828C83E709F0A303
:100AD600DFFA8032E309F608DFFA8078E309F208E4
:100AE600DFFA807088828C83E309F0A3DFFA8064E2
:100AF60089828A83E0A3F608DFFA805889828A838E
:100B0600E0A3F208DFFA804C80D280FA80C680D457
:100B1600806980F28033801080A680EA809A80A85F
:100B260080DA80E280CA803389828A83ECFAE49391
:100B3600A3C8C582C8CCC583CCF0A3C8C582C8CC1F
:100B4600C583CCDFE9DEE7800D89828A83E493A33F
:100B5600F608DFF9ECFAA9F0EDFB2289828A83EC2C
:100B6600FAE0A3C8C582C8CCC583CCF0A3C8C582A9
:100B7600C8CCC583CCDFEADEE880DB89828A83E4E1
:100B860093A3F208DFF980CC88F0EF60010E4E6087
:100B9600C388F0ED2402B4040050B9F582EB2402B8
:100BA600B4040050AF2323458223900B0E73BB0180
:100BB6000689828A83E0225002E722BBFE02E322F4
:100BC60089828A83E49322BB010CE58229F582E5BA
:100BD600833AF583E0225006E92582F8E622BBFE39
:100BE60006E92582F8E222E58229F582E5833AF5CF
:100BF60083E49322BC000BBE0029EF8DF084FFAD89
:100C0600F022E4CCF875F008EF2FFFEE33FEEC335C
:100C1600FCEE9DEC984005FCEE9DFE0FD5F0E9E458
:100C2600CEFD22EDF8F5F0EE8420D21CFEADF07577
:100C3600F008EF2FFFED33FD4007985006D5F0F290
:100C460022C398FD0FD5F0EA22C5F0F8A3E028F0FC
:100C5600C5F0F8E582158270021583E038F022A30C
:100C6600F8E0C5F025F0F0E582158270021583E004
:100C7600C838F0E822BB010A89828A83E0F5F0A32E
:100C8600E022500687F009E71922BBFE07E3F5F0DC
:100C960009E3192289828A83E493F5F07401932289
:100CA600BB010789828A83020C4F500B09C5F027C6
:100CB600F7C5F01937F722BBFE0D09F8E325F0F367
:100CC600C5F019E338F322F889828A8374019325E3
:100CD600F0C5F0F8E4933822E4900208F0A3F0752A
:100CE600E10775E2C175A43F75A59075A69975F2E1
:100CF600BB75F3FD75D4C075D54C75D6021214E2DA
:100D06007F09121A9D75A14075F80875A20143F86E
:100D160001D2FA7F017E00120803C2FA7F017E002B
:100D2600120803D2FA7F297E00120803C2FA208134
:100D3600FD75A330A2FFE43360FAC2FFD2FA7BFF4F
:100D46007A1A79AE12084B901AD1E493FD7F3E12BF
:100D56001A451218FF758D6AE4F58BF563FB7D0461
:100D66007F011217771212ABE573606C14700302E1
:100D76000E2F147003020E78147003020E84147082
:100D8600E77FFA7E0012080312168A900206EFF039
:100D9600A3E06F6008900206E0FF1213829002063D
:100DA600E0A3F0E56FB404C012196EEF60BAD2ABDF
:100DB60090025AE07004A3E064017017757302751F
:100DC60064FF7565197566477BFF7A19793B120EC4
:100DD600FA8095E4F57380901217DA900208E475AC
:100DE600F001120C65FED3900257E095F090025682
:100DF600E09E400D7573017FFA7E001219DF020D29
:100E06006E7F887E131208037564FF756519756613
:100E1600557BFF7A19794C120EFAE4900208F0A37A
:100E2600F0757304C2AB020D6E900238E0600302E7
:100E36000D6E90024AE06023900208E0FEA3E0FFF8
:100E460012157E75640175650275664E7BFF7A190B
:100E5600795E120EFAE490024A801190024DE0701B
:100E660003020D6EE4900243F090024DF0F573021A
:100E76000D6E757303E4FFFE12081E020D6E9002DE
:100E86003FE0705390024BE07003020D6EE4F09069
:100E96000248E0FEA3E0F5828E83E02402FDE433FF
:100EA600FCE5822DF582E5833CF583E030E7229070
:100EB6000000E475F001120C4FAFF0FE12157E75BE
:100EC600640175650275664E7BFF7A197964120EA8
:100ED600FA757302020D6E7564FF756519756655B0
:100EE6007BFF7A19794C120EFAE490023FF0757383
:100EF60004020D6E8B618A628963E4F567E55A60C8
:100F060003021083752B03752C76F52D752F12753C
:100F16003076753140120BB4FF700BAB64AA65A92D
:100F260066120BB4700EAB64AA65A966120BB47098
:100F360075EF6072AB61AA62A963120BB4600B75A0
:100F46002E808B688A69896A800C752EC0856468D4
:100F560085656985666AAB68AA69A96A1218767496
:100F6600322567F8A607AB68AA69A96AAF6705675D
:100F76008F82758300120BCD6007E567C39410401E
:100F8600D5E567C39410501874072567F567E567BC
:100F9600C39417500B742B2567F8769B056780EE74
:100FA600E4F54202107AAB61AA62A963120BB4702F
:100FB6000302107AAB64AA65A966120BB470030229
:100FC600107A752E80754203754376E4F5447545AF
:100FD600C0754612754776754840AB61AA62A9632B
:100FE60012187674322567F8A607AB61AA62A96360
:100FF600AF6705678F82758300120BCD6007E567C3
:10100600C3941040D5E567C394105018740725673C
:10101600F567E567C39417500B742B2567F8769B25
:10102600056780EEE4F567AB64AA65A966121876D3
:1010360074492567F8A607AB64AA65A966AF670574
:10104600678F82758300120BCD6007E567C3941026
:1010560040D5E567C394105018741E2567F567E5FB
:1010660067C3942E500B742B2567F8769B05678013
:10107600EEE4F559755A011219BE7F01227F00224E
:10108600E4F55E90023EE0602790023CE07002A329
:10109600E0601090023DE024FFF090023CE034FF57
:1010A600F0800D7F36121A8BE490023EF0A304F016
:1010B600121A618F5FE55F5470FFBF6003755E01B2
:1010C60090023FE0455E600CE4900244F0A3F07F9E
:1010D6003A021A8BC2FA2081FD75A3FFA2FFE43300
:1010E60060FAC2FF85A35FE55F540FFD7C007003C5
:1010F6000211C090024CE07041ED6401603CE4F5E1
:10110600A3A2FFE43360FAC2FF900248E0FEA3E028
:10111600FFF5828E83E5A3F08F828E83E02402FEA4
:10112600E433900244F0A3CEF0ED1D70011C900252
:1011360041E4F0A304F090024CF0ED4C60119002F3
:1011460044E06C7003A3E06D6005ED1D70011CC3E7
:10115600900245E09DF0900244E09CF0ED1DAE0447
:1011660070011C4E6039E4F5A3A2FFE43360FAC2B5
:10117600FF900248E0FEA3E0F5828E83C083C08222
:10118600900241E475F001120C65FED082D083E531
:101196008225F0F582E5833EF583E5A3F080BDD296
:1011A600FA900244E07002A3E0700F90024CE060F7
:1011B6000990024B7401F0E4A3F0D2FA2290023BAC
:1011C600E06033900239E07002A3E0701A90023BAF
:1011D600F090023804F07F35121A8B900243E0FD3E
:1011E6007F3F121A45800F90023AE024FFF09002EA
:1011F60039E034FFF022121A768F5EE55E547024D1
:101206009070030212922450600302129DE55E5410
:101216000FFF900243E0FEC39F5004AF06800074A8
:1012260010C39F50047F108011E55E540FFFEEC37C
:101236009F5007900243E0FF8000AD07ED60659088
:101246000243E0C39DF0C2FA2081FD75A37FA2FF91
:10125600E43360FAC2FFAF051DEF6022900240E062
:10126600FF04F0900246E0FAA3E02FF582E43AF597
:1012760083E0F5A3A2FFE43360FAC2FF80D8D2FA76
:10128600900243E0701E90024A04F0227F3B121A3D
:101296008B90024D7401F0900238E06007E55E54D1
:1012A600707001F022E56F75F017A4246FF97414BD
:1012B60035F0FA7BFF78217C027D017E007F1712D4
:1012C6000B8EE56F24FD605A1460792402600302D8
:1012D600135B900258E07004A3E064017F0870215C
:1012E600121A02EF4440FD7F08121A457564FF7515
:1012F60065147566467B017A027921120EFAC2A040
:1013060022121A02EF54BFFD7F08121A457564FFB8
:1013160075651475664E7B017A027921120EFAD232
:10132600A02290025AE07004A3E06401700B756479
:10133600FF75651475665780397564FF7565147594
:10134600665A802E7564FF7565147566667BFF7A2E
:1013560014795D8023900232E0FBA3E0FAA3E0F962
:10136600120C7BFFAEF012157E7564017565027571
:10137600664E7B017A027921120EFA228F60E56FA2
:1013860075F017A4246FF9741435F0FA7BFF780A08
:101396007C027D017E007F17120B8EE56024FE60C5
:1013A6001C14602714605E24036003021443E56F77
:1013B600D394005003021443156F021443E57014CE
:1013C600FFE56FC39F5076056F807290021BE0FBAE
:1013D600A3E0FAA3E0F9120C7BFF90021EE0FDD316
:1013E600EF9DE5F094004055E56F700774FF75F0CA
:1013F600EC8047E56FB4010774FF75F09C803B7481
:10140600FFF5F0803590021BE0FBA3E0FAA3E0F9BC
:10141600120C7BFFD3900220E09F90021FE095F014
:10142600401BE56F700575F014800FE56FB401067B
:10143600E475F0648004E475F001120CA60212ABA8
:10144600456E61626C65640044697361626C6564D3
:10145600005278005478005072657373205331003F
:10146600746F2073746172740053657420706B74AA
:101476002E206C656E67746800000102540A00FA3B
:101486004E756D626572206F66207061636B657460
:10149600730102566403E857686974656E696E677E
:1014A6000000000000000000010258000001526127
:1014B60064696F204D6F6465000000000000000144
:1014C600025A0000015374617274000000000000AB
:1014D600000000000000000000000000758C9685EA
:1014E6008C8A5389FC438902438E04D28C43C18083
:1014F60043E601D2AFE4F55AF55BF55DC2A3000001
:1015060000000000000000D2A3752B07752C76F5AD
:101516002D752E0C752F217530A075310775322467
:10152600F5331219BBE55A640160FA752B03752C65
:1015360076E4F52D752E80752F127530767531404F
:101546007F107832749BF608DFFC7542037543768C
:10155600E4F5447545C07546127547767548407F73
:10156600107849749BF608DFFC7F10E4F5591219D0
:10157600BBE55A640160FA228E618F62E4F563FB73
:10158600F564F565756627756710E5624561700A4D
:1015960090024E7430F0E4A3F0227A05AC66AD6793
:1015A600AE61AF62120BFA8E648F65EB6401600662
:1015B600E565456460267B01AE61AF62AC66AD67EA
:1015C600120BFA8C618D62E5652430FFAE6305630C
:1015D600744E2EF582E43402F583EFF0AE66AF6703
:1015E6007C007D0A120BFA8E668F67DAAFAF630551
:1015F60063744E2FF582E43402F583E4F02275819C
:1016060073021645020CDEE493A3F8E493A34003A9
:10161600F68001F208DFF48029E493A3F854072446
:101626000CC8C333C4540F4420C8834004F4568006
:101636000146F6DFE4800B0102040810204080908A
:101646001996E47E019360BCA3FF543F30E509542C
:101656001FFEE493A360010ECF54C025E060A840AE
:10166600B8E493A3FAE493A3F8E493A3C8C582C8A5
:10167600CAC583CAF0A3C8C582C8CAC583CADFE97A
:10168600DEE780BEC2EDD2EC30EDFDAFBEEFD39407
:10169600607E0040027E01EFC3947B7D0050027D98
:1016A60001ED5E60037F0322EFD394A47E00400227
:1016B6007E01EFC394BF7D0050027D01ED5E6003A5
:1016C6007F0422EFD394C47E0040027E01EFC394D0
:1016D600DF7D0050027D01ED5E60037F0122EFC3D6
:1016E60094007E0040027E01EFC3943D7F005002CD
:1016F6007F01EF5E60037F02227F003095027F0547
:1017060022C0E0C0F0C083C082C0D075D000C00047
:10171600C001C002C003C004C005C006C007E5C0C2
:1017260054F02440601324E0702AAF5D055D742BED
:101736002FF8E6F5C2C2C5801B155CE55C600DAFEF
:101746005D055D742B2FF8E6F5C28008D2C4755B83
:10175600001219BEC2C0D007D006D005D004D003EF
:10176600D002D001D000D0D0D082D083D0F0D0E04B
:10177600327EFCEF70085389FCEB4289800CBF0176
:10178600095389CFEBC454F04289EF7021EDD3940D
:10179600034005438E04800B538EFBE58E5206EE06
:1017A6004DF58EE5636004D2A9D2AFD28C22EF64E8
:1017B600017020EDD394034005438E08800B538EB1
:1017C600F7E58E5206EE4DF58EE5636004D2ABD298
:1017D600AFD28E22900254A3E0900104F0E4A3F06D
:1017E60090020AF0A37402F0900254E0FEA3E0FF18
:1017F600D390020BE09F90020AE09E502512182912
:1018060090020AE0FCA3E02404F58274013CF5830F
:10181600EFF090020BE004F070CE90020AE004F0C4
:1018260080C622AC6BAD6CAE6DAF6E7810EC4D4ED3
:101836004F70047CA57DA5C3EC13FCED13FDEE13E0
:10184600FEEF13FF5010EC64CCFCED644CFDEE642F
:101856004EFEEF64CEFFD8DF8C6B8D6C8E6D8F6E77
:10186600EE547FFE228E6B8F6C74A5F56DF56E229D
:10187600856782758300120BCDFFBF24047F8280AB
:1018860033BF40047F80802CEF70047F9B8025EF60
:10189600D3941F4005EF94244016EFD394244005BB
:1018A600EF9440400BEFD394404009EF945B500413
:1018B60074802FFF22C0E0C0F0C083C082C0D07504
:1018C600D000C000C001C002C003C004C005C006ED
:1018D600C007758D6A758B001211C3121086D0076A
:1018E600D006D005D004D003D002D001D000D0D08D
:1018F600D082D083D0F0D0E0329002467401F0A3BB
:101906007404F0A37400F0A37402F0E4900238F0BB
:1019160090023BF090023FF090023EF090024AF0B7
:10192600A3F0900244F0A3F0900244F0A3F09002DA
:101936004CF0A3F02257616974696E6720666F7276
:1019460000646174610050726573732053310074D2
:101956006F2073746172740053656E743A00526539
:101966006365697665643A00209314E572601EAF7C
:10197600710571EFB46416E4F572F5717F0122AF5B
:10198600710571EFB46406757201E4F5717F00228A
:10199600480254000A006400000000016F00017054
:1019A60005420000000041020600410207000173E3
:1019B6000401720100755A01E55A601CE55B701856
:1019C600AF5D055D742B2FF8E6F55C6006755B016F
:1019D600D2C522E4F55AF55D229002407401F090DA
:1019E6000246E0FCA3E0F5828C83E0900243F0908F
:1019F6000239EEF0A3EFF0A37401F022C2FA2081BF
:101A0600FDEF4480F5A3A2FFE43360FAC2FFE4F5DC
:101A1600A3A2FFE43360FAC2FFAFA3D2FA2222DD0B
:101A2600DDDDDD1A241A241A241A241A24090212C6
:101A36000001010040320904000000FFFFFF00C260
:101A4600FA2081FD8FA3A2FFE43360FAC2FF8DA3C3
:101A5600A2FFE43360FAC2FFD2FA22C2FA2081FD65
:101A660075A3BDA2FFE43360FAC2FFD2FAAFA32288
:101A7600C2FA2081FD75A33DA2FFE43360FAC2FFDE
:101A8600D2FAAFA322C2FA2081FD8FA3A2FFE433CC
:101A960060FAC2FFD2FA2275BC3C75E840D2EF75F7
:101AA600D1088FBB75BA1F220A002162762D3B73BF
:101AB60022F80000B610181D1CC700B0EA2A001F45
:0C1AC60059883109072906040500FF8E2D
:00000001FF
