:10000000020DBBEFB40A07740D12000E740A30988B
:1000100011A899B8130CC2983098FDA899C298B845
:1000200011F63099FDC299F59922EFC39461400A07
:10003000EF947B5005EF24E0FF2222020B5DE51BCD
:10004000240FF8E6051B22780C300702780FE475C0
:10005000F001120A8B020A112000EB7F2ED20080E1
:1000600018EF540F2490D43440D4FF30040BEF2405
:10007000BFB41A0050032461FFE51C6002151C0583
:100080001FE51F7002051E30070D780CE475F001A6
:10009000120A8BEF020A790200037403D20780036D
:1000A000E4C207F51B8B0C8A0D890EE4F51CF51EC6
:1000B000F51FE51C60077F2012007980F5751DFF94
:1000C000C201C200C202C203C205C206C2081200B7
:1000D00047FF700D3007057F0012008AAF1FAE1E6C
:1000E00022B4255FC2D5C204120047FF24D0B40A4F
:1000F00000501A75F00A781C30D50508B6FF0106C5
:10010000C6A426F620D5047002D20380D924CFB429
:100110001A00EF5004C2E5D20402028AD20180C65E
:10012000D20080C0D20280BCD2D580BAD20580B4C1
:100130007F201200792002077401B51C0040F112E3
:10014000003EFF1200790200B2D208D2068095125A
:10015000003EFB12003EFA12003EF94A4B7006794F
:100160005B7A037BFF20022EE51C602A7E008E82D4
:10017000758300120A2A60060EEE651D70F0C2D566
:10018000EBC0E0EAC0E0E9C0E0EE1202D1D0E0F955
:10019000D0E0FAD0E0FB120A11FF60AAEBC0E0EA5F
:1001A000C0E0E9C0E0120079D0E02401F9D0E034E9
:1001B00000FAD0E0FBE51D0460DCD51DD980877B0B
:1001C000FF7A0279CDD202809C791080027908C230
:1001D00006C2088008D2D5790A8004790AC2D5E51A
:1001E0001D047002F51DE4FAFDFEFF12003EFC7BCB
:1001F0000820011312003EFD7B1030000A12003E61
:10020000FE12003EFF7B20EC3382D592D55013C303
:10021000E43000069FFFE49EFEE42001039DFDE420
:100220009CFCE4CBF8C201EC700CCFCECDCCE82422
:10023000F8F870F38017C3EF33FFEE33FEED33FDB4
:10024000EC33FCEB33FB994002FB0FD8E9EB3001B8
:1002500005F8D0E0C448B201C0E00AEC4D4E4F783A
:10026000207B0070C2EAB51D0040BCC0E01202D382
:10027000D0F0D0E0200104C4C0E0C4B201C0F0124C
:100280000062D0F0D5F0EB0200B2120A9B014F538E
:1002900001C95801204C011C4201CD4F01D5440138
:1002A000D54901354301DB5501BF4601BF4501BFBB
:1002B00047037B5001242D01282E014B2B012C23B9
:1002C00001492003642A00E448000001433F3F3F06
:1002D00000790AA2D5200314300509B910020404DC
:1002E000B9080104A2D52006025001042002689238
:1002F00002B51C005034C0E07F203003197F30A2CB
:100300000272067205500F12032AC202C206C2050B
:10031000C2087F30800F300503E9C0E01200793059
:100320000503D0E0F9D0E0B51CCC3005177F30B91B
:10033000100C1200797F583004077F788003B908C9
:10034000031200793002057F2D0200797F202008FA
:10035000F87F2B2006F322920280CF286E756C6CFA
:100360002900D20112003E3001F8C201781C30D5BC
:100370000108F60200E42D5043495812003E2403C0
:10038000B405004001E49003769312006A743A12B7
:10039000006AD203751C040201C98B0C8A0D890EF8
:1003A000120A11FD7F0B120D87AB0CAA0DA90E903E
:1003B0000001120A2AFD7F0C120D87AB0CAA0DA9B1
:1003C0000E900002120A2AFD7F0D120D87AB0CAAB7
:1003D0000DA90E900003120A2AFD7F0E120D87ABA5
:1003E0000CAA0DA90E900004120A2AFD7F0F120D0F
:1003F00087AB0CAA0DA90E900005120A2AFD7F10EA
:10040000120D87AB0CAA0DA90E900006120A2AFD48
:100410007F11120D87AB0CAA0DA90E900007120ACE
:100420002AFD7F12120D87AB0CAA0DA90E900008B1
:10043000120A2AFD7F13120D87AB0CAA0DA90E908C
:100440000009120A2AFD7F14120D87AB0CAA0DA910
:100450000E90000A120A2AFD7F0A120D87AB0CAA21
:100460000DA90E90000B120A2AFD7F15120D87AB05
:100470000CAA0DA90E90000C120A2AFD7F21120D64
:1004800087AB0CAA0DA90E90000D120A2AFD7F223F
:10049000120D87AB0CAA0DA90E90000E120A2AFDB0
:1004A0007F18120D87AB0CAA0DA90E90000F120A2F
:1004B0002AFD7F19120D87AB0CAA0DA90E90001012
:1004C000120A2AFD7F1A120D87AB0CAA0DA90E90F5
:1004D0000011120A2AFD7F1B120D87AB0CAA0DA971
:1004E0000E900012120A2AFD7F1C120D87AB0CAA77
:1004F0000DA90E900013120A2AFD7F1D120D87AB65
:100500000CAA0DA90E900014120A2AFD7F23120DC9
:1005100087AB0CAA0DA90E900015120A2AFD7F24A4
:10052000120D87AB0CAA0DA90E900016120A2AFD17
:100530007F25120D87AB0CAA0DA90E900017120A89
:100540002AFD7F26120D87AB0CAA0DA90E9000186C
:10055000120A2AFD7F29120D87AB0CAA0DA90E9055
:100560000019120A2AFD7F2C120D87AB0CAA0DA9C7
:100570000E90001A120A2AFD7F2D120D87AB0CAACD
:100580000DA90E90001B120A2AFD7F2E120D87ABBB
:100590000CAA0DA90E90001C120A2AFD7F03120D51
:1005A00087AB0CAA0DA90E90001D120A2AFDE4FFCC
:1005B000120D87AB0CAA0DA90E90001E120A2AFD7F
:1005C0007F02120D87AB0CAA0DA90E90001F120A14
:1005D0002AFD7F07120D87AB0CAA0DA90E900020F3
:1005E000120A2AFD7F08120D87AB0CAA0DA90E90E6
:1005F0000021120A2AFD7F09120D87AB0CAA0DA952
:100600000E900022120A2AFD7F06020D878B0A8AAD
:100610000B890CE4F510E55160030207967522037F
:10062000752376F524752612752776752840120AEB
:1006300011FF700BAB0DAA0EA90F120A11700EABB1
:100640000DAA0EA90F120A117075EF6072AB0AAAFB
:100650000BA90C120A11600B7525808B118A128967
:1006600013800C7525C0850D11850E12850F13ABF7
:1006700011AA12A913120C1C74292510F8A607AB95
:1006800011AA12A913AF1005108F82758300120AE8
:100690002A6007E510C3941040D5E510C3941050AC
:1006A0001874072510F510E510C39417500B742229
:1006B0002510F8769B051080EEE4F53902078DAB26
:1006C0000AAA0BA90C120A11700302078DAB0DAA1E
:1006D0000EA90F120A11700302078D752580753956
:1006E00003753A76E4F53B753CC0753D12753E7670
:1006F000753F40AB0AAA0BA90C120C1C74292510DB
:10070000F8A607AB0AAA0BA90CAF1005108F8275CB
:100710008300120A2A6007E510C3941040D5E51043
:10072000C39410501874072510F510E510C39417E2
:10073000500B74222510F8769B051080EEE4F5101E
:10074000AB0DAA0EA90F120C1C74402510F8A607B9
:10075000AB0DAA0EA90FAF1005108F827583001282
:100760000A2A6007E510C3941040D5E510C3941021
:100770005018741E2510F510E510C3942E500B74FC
:10078000222510F8769B051080EEE4F55075510196
:10079000120D227F01227F00225370692E63000A0E
:1007A0000A0D000A0D434378783030204D656E7590
:1007B0003A0A0A0D00523A20526573657420434389
:1007C000787830300A0D00573A20577269746520E6
:1007D00052656769737465722053657474696E67D6
:1007E0007320746F204343787830300A0D00563AF6
:1007F00020446973706C61792076657273696F6EDD
:10080000206E756D6265720A0D00443A204469736A
:10081000706C617920416C6C2052656769737465F6
:1008200072730A0D00503A20577269746520746F14
:100830002050415441424C450A0D004C3A2052652B
:1008400061642050415441424C450A0D00416464AA
:10085000722E20307825303258203A20003078250A
:100860003032580A0D000A0D56657273696F6E3A80
:10087000203078253032580A0D0050415441424C06
:10088000455B2562755D3A20307825303258200A64
:100890000D0012002AEF24BC603A24F8700302090C
:1008A0002924FC607424FA605B14601C2405600336
:1008B00002095DC2FA2081FD75A330A2FFE4336016
:1008C000FAC2FFD2FA02095A7BFF7A0D79C71203E6
:1008D0009A02095AE4F50B7BFF7A08794D750F00EF
:1008E000850B101200A0AF0B120D43750F008F1077
:1008F0007BFF7A08795D1200A0050BE50BD3942EDF
:1009000040D580567F31120D65750F008F107BFF2B
:100910007A0879661200A080417BFF7A0D79EA752A
:1009200010087F3E120CE180317B007A007955750A
:1009300010087F3E120C61E4F50A7BFF7A08797A91
:10094000850A0F7455250AF8E6751000F511120096
:10095000A0050AE50AC3940840E0120CA22253D96C
:10096000BFE4F5B943B980F5090509E509B414F9FF
:1009700043B9C0E5B930E5FB43A90275B28375E11F
:100980000775E2C175A43F75A59075A69975F2BB70
:1009900075F3FD75D4C075D54C75D602120AC175B4
:1009A0000D00750E00750F007BFF7A07799912060E
:1009B0000DE4FD7F05120BCD75A14075F80875A2F9
:1009C0000143F801D2FA7F017E00120DA3C2FA7F23
:1009D000017E00120DA3D2FA7F297E00120DA3C260
:1009E000FA2081FD75A330A2FFE43360FAC2FFD282
:1009F000FA120CA2D29CA298E43360FA859908C23C
:100A0000987BFF7A07799F1200A0AF0812089280A6
:100A1000E5BB010689828A83E0225002E722BBFE01
:100A200002E32289828A83E49322BB010CE58229B6
:100A3000F582E5833AF583E0225006E92582F8E65F
:100A400022BBFE06E92582F8E222E58229F582E54D
:100A5000833AF583E49322F8BB010DE58229F58200
:100A6000E5833AF583E8F0225006E92582C8F622AC
:100A7000BBFE05E92582C8F222BB010689828A8372
:100A8000F0225002F722BBFE01F322FAE6FB08082F
:100A9000E6F925F0F618E6CA3AF622D083D082F8B5
:100AA000E4937012740193700DA3A393F8740193EF
:100AB000F5828883E4737402936860EFA3A3A38034
:100AC000DF758C96858C8A5389FC438902438E049A
:100AD000D28C43C18043E601D2AFE4F551F552F523
:100AE00054C2A3000000000000000000D2A3752241
:100AF00007752376F52475250C7526217527A075B5
:100B00002807752924F52A120D1FE551640160FAA2
:100B1000752203752376E4F52475258075261275F4
:100B200027767528407F107829749BF608DFFC75BE
:100B30003903753A76E4F53B753CC0753D12753E58
:100B400076753F407F107840749BF608DFFC7F107D
:100B5000E4F550120D1FE551640160FA22C0E0C0B7
:100B6000F0C083C082C0D075D000C000C001C002F8
:100B7000C003C004C005C006C007E5C054F024404F
:100B8000601324E0702AAF54055474222FF8E6F560
:100B9000C2C2C5801B1553E553600DAF5405547494
:100BA000222FF8E6F5C28008D2C4755200120D2239
:100BB000C2C0D007D006D005D004D003D002D001E7
:100BC000D000D0D0D082D083D0F0D0E032EF14600B
:100BD0001514601714601914601E14602024057029
:100BE00022758D30801D758D988018758DCC801381
:100BF000758DB2438E01800B758D308003758D9895
:100C0000438E08D28E438920ED54F0F598ED540FB1
:100C1000FFBF0105D2ACD2AF22D2992285108275D6
:100C20008300120A2AFFBF24047F828033BF40045E
:100C30007F80802CEF70047F9B8025EFD3941F4032
:100C400005EF94244016EFD394244005EF944040E0
:100C50000BEFD394404009EF945B500474802FFF56
:100C6000228B0D8A0E890FC2FA2081FDEF44C0F558
:100C7000A3A2FFE43360FAC2FFE4FFEFC395105074
:100C80001EE4F5A3A2FFE43360FAC2FFAB0DAA0E87
:100C9000A90F8F82758300E5A3120A570F80DCD25B
:100CA000FA227BFF7A0779A31200A07BFF7A0779EB
:100CB000B51200A07BFF7A0779C71200A07BFF7AEC
:100CC0000779EE1200A07BFF7A08790A1200A07B58
:100CD000FF7A0879251200A07BFF7A08793B020091
:100CE000A08B0D8A0E890FC2FA2081FDEF4440F5DA
:100CF000A3A2FFE43360FAC2FFE4FFEFC3951050F4
:100D00001BAB0DAA0EA90F8F82758300120A2AF55C
:100D1000A3A2FFE43360FAC2FF0F80DFD2FA22758C
:100D20005101E551601CE5527018AF54055474220E
:100D30002FF8E6F5536006755201D2C522E4F5514D
:100D4000F55422C2FA2081FDEF4480F5A3A2FFE40E
:100D50003360FAC2FFE4F5A3A2FFE43360FAC2FFF6
:100D6000AFA3D2FA22C2FA2081FDEF44C0F5A3A2BC
:100D7000FFE43360FAC2FFE4F5A3A2FFE43360FAB4
:100D8000C2FFAFA3D2FA22C2FA2081FD8FA3A2FF35
:100D9000E43360FAC2FF8DA3A2FFE43360FAC2FF1E
:100DA000D2FA220000000000000000000000000055
:100DB00000EF1F70011E144E70E922787FE4F6D810
:100DC000FD75815C02095E0A0010A7622D3B73224B
:100DD000F80000B610181D1CC700B0EA2A001F5901
:100DE000883109072906040500FF600000000000A3
:020DF000000001
:00000001FF
