:100000000204F5753701E537601CE5387018AF3A22
:10001000053A74082FF8E6F5396006753801D2C53F
:1000200022E4F537F53A2275BC3C75E840D2EF750D
:08003000D1088FBB75BA1F2235
:10003B000203928B3C8A3D893EE4F542E53760032F
:10004B000201C7750803750976F50A750C12750D53
:10005B0076750E4012046AFF700BAB3FAA40A941A4
:10006B0012046A700EAB3FAA40A94112046A707564
:10007B00EF6072AB3CAA3DA93E12046A600B750B94
:10008B00808B438A448945800C750BC0853F438523
:10009B004044854145AB43AA44A9451204B0740FB3
:1000AB002542F8A607AB43AA44A945AF4205428FA8
:1000BB00827583001204836007E542C3941040D518
:1000CB00E542C39410501874072542F542E542C32C
:1000DB009417500B74082542F8769B054280EEE48A
:1000EB00F51F0201BEAB3CAA3DA93E12046A700388
:1000FB000201BEAB3FAA40A94112046A7003020180
:10010B00BE750B80751F03752076E4F5217522C033
:10011B00752312752476752540AB3CAA3DA93E127A
:10012B0004B0740F2542F8A607AB3CAA3DA93EAF1D
:10013B004205428F827583001204836007E542C338
:10014B00941040D5E542C39410501874072542F51E
:10015B0042E542C39417500B74082542F8769B0571
:10016B004280EEE4F542AB3FAA40A9411204B074C1
:10017B00262542F8A607AB3FAA40A941AF4205424C
:10018B008F827583001204836007E542C39410408D
:10019B00D5E542C394105018741E2542F542E54232
:1001AB00C3942E500B74082542F8769B054280EEC3
:1001BB00E4F5367537011200067F01227F002253CA
:1001CB00D9BFE4F5B943B980F53B053BE53BB41426
:1001DB00F943B9C0E5B930E5FB43A90275B28375A4
:1001EB00E10775E2C175A43F75A59075A69975F2E7
:1001FB00BB75F3FD75D4C075D54C75D6021202795B
:10020B007F09120027120315EF24FE6018146020DB
:10021B0014602814603024047040753FFF7540044F
:10022B0075410D802A753FFF75400475411A801F7B
:10023B00753FFF7540047541298014753FFF75406C
:10024B00047541388009753FFF7540047541487B43
:10025B00FF7A04790212003E80AB753FFF754004B4
:10026B007541597BFF7A04790212003E8097758C99
:10027B0096858C8A5389FC438902438E04D28C4326
:10028B00C18043E601D2AFE4F537F538F53AC2A3A6
:10029B00000000000000000000D2A37508077509DC
:1002AB0076F50A750B0C750C21750DA0750E07757F
:1002BB000F24F510120003E537640160FA7508038B
:1002CB00750976E4F50A750B80750C12750D76754C
:1002DB000E407F10780F749BF608DFFC751F0375BB
:1002EB002076E4F5217522C07523127524767525C9
:1002FB00407F107826749BF608DFFC7F10E4F53600
:10030B00120003E537640160FA22C2EDD2EC30ED46
:10031B00FDAFBEEFD394607E0040027E01EFC3942D
:10032B007B7D0050027D01ED5E60037F0322EFD3E6
:10033B0094A47E0040027E01EFC394BF7D00500267
:10034B007D01ED5E60037F0422EFD394C47E0040F9
:10035B00027E01EFC394DF7D0050027D01ED5E60F4
:10036B00037F0122EFC394007E0040027E01EFC3A6
:10037B00943D7F0050027F01EF5E60037F02227F7E
:10038B00003095027F0522C0E0C0F0C083C082C060
:10039B00D075D000C000C001C002C003C004C005AE
:1003AB00C006C007E5C054F02440601324E0702A57
:1003BB00AF3A053A74082FF8E6F5C2C2C5801B1593
:1003CB0039E539600DAF3A053A74082FF8E6F5C2F6
:1003DB008008D2C4753800120006C2C0D007D00600
:1003EB00D005D004D003D002D001D000D0D0D08221
:1003FB00D083D0F0D0E0324A6F79737469636B2E7F
:10040B006300506F736974696F6E3A2055700050BA
:10041B006F736974696F6E3A20446F776E00506F1B
:10042B00736974696F6E3A204C65667400506F7314
:10043B006974696F6E3A20526967687400506F7304
:10044B006974696F6E3A2050757368656400506FFC
:10045B00736974696F6E3A2043656E74657200BB85
:10046B00010689828A83E0225002E722BBFE02E367
:10047B002289828A83E49322BB010CE58229F582CF
:10048B00E5833AF583E0225006E92582F8E622BBA4
:10049B00FE06E92582F8E222E58229F582E5833A18
:1004AB00F583E49322854282758300120483FFBF98
:1004BB0024047F828033BF40047F80802CEF700444
:1004CB007F9B8025EFD3941F4005EF94244016EFBC
:1004DB00D394244005EF9440400BEFD39440400954
:1004EB00EF945B500474802FFF22787FE4F6D8FDE5
:0604FB007581450201CAF3
:00000001FF
