:0608000002151A0210C0EF
:1008130002121C755A01E55A601CE55B7018AF5D46
:10082300055D742B2FF8E6F55C6006755B01D2C598
:0708330022E4F55AF55D22F5
:03083B000217158C
:10084600E18C6419988B5E8A5F8960120DFEFD7FCC
:100856000B1219B8AB5EAA5FA960900001120E17C1
:10086600FD7F0C1219B8AB5EAA5FA9609000021258
:100876000E17FD7F0D1219B8AB5EAA5FA960900036
:1008860003120E17FD7F0E1219B8AB5EAA5FA960A0
:10089600900004120E17FD7F0F1219B8AB5EAA5F07
:1008A600A960900005120E17FD7F101219B8AB5EF5
:1008B600AA5FA960900006120E17FD7F111219B8E3
:1008C600AB5EAA5FA960900007120E17FD7F121299
:1008D60019B8AB5EAA5FA960900008120E17FD7FDB
:1008E600131219B8AB5EAA5FA960900009120E1721
:1008F600FD7F141219B8AB5EAA5FA96090000A12B8
:100906000E17FD7F0A1219B8AB5EAA5FA9609000A8
:100916000B120E17FD7F151219B8AB5EAA5FA96000
:1009260090000C120E17FD7F211219B8AB5EAA5F5C
:10093600A96090000D120E17FD7F221219B8AB5E4A
:10094600AA5FA96090000E120E17FD7F181219B843
:10095600AB5EAA5FA96090000F120E17FD7F1912F9
:1009660019B8AB5EAA5FA960900010120E17FD7F42
:100976001A1219B8AB5EAA5FA960900011120E1781
:10098600FD7F1B1219B8AB5EAA5FA9609000121218
:100996000E17FD7F1C1219B8AB5EAA5FA960900006
:1009A60013120E17FD7F1D1219B8AB5EAA5FA96060
:1009B600900014120E17FD7F231219B8AB5EAA5FC2
:1009C600A960900015120E17FD7F241219B8AB5EB0
:1009D600AA5FA960900016120E17FD7F251219B89E
:1009E600AB5EAA5FA960900017120E17FD7F261254
:1009F60019B8AB5EAA5FA960900018120E17FD7FAA
:100A0600291219B8AB5EAA5FA960900019120E17D9
:100A1600FD7F2C1219B8AB5EAA5FA96090001A126E
:100A26000E17FD7F2D1219B8AB5EAA5FA960900064
:100A36001B120E17FD7F2E1219B8AB5EAA5FA960B6
:100A460090001C120E17FD7F031219B8AB5EAA5F49
:100A5600A96090001D120E17FDE4FF1219B8AB5ED7
:100A6600AA5FA96090001E120E17FD7F021219B828
:100A7600AB5EAA5FA96090001F120E17FD7F0712DA
:100A860019B8AB5EAA5FA960900020120E17FD7F11
:100A9600081219B8AB5EAA5FA960900021120E1762
:100AA600FD7F091219B8AB5EAA5FA96090002212F9
:100AB6000E17FD7F060219B875E10775E2C175A428
:100AC6003F75A59075A69975F2BB75F3FD75D4C0F3
:100AD60075D54C75D6021213EF7F091219FE75A152
:100AE6004075F80875A20143F801D2FA7F017E002D
:100AF6001219D4C2FA7F017E001219D4D2FA7F29C4
:100B06007E001219D4C2FA2081FD75A330A2FFE43B
:100B16003360FAC2FFD2FA7BFF7A1A790F12084BBA
:100B2600901A32E493FD7F3E1219B81215A0D2BA7C
:100B3600E5797003020BED147003020C6514700363
:100B4600020CB0147003020CB81470E47FFA7E0035
:100B56001219D412162090038CEFF09003A5E06FC3
:100B6600600890038CE0FF12132B90038CE0900337
:100B7600A5F0E577B403B912192CEF60B3C2AF90B4
:100B860003E0E07004A3E0640170317579027562D8
:100B9600FF7563197564827BFF7A197976120F34B3
:100BA600E4FDFF1219B8D28AE5E4540F44F0F5E4E7
:100BB600D2AAD288E5E454F0440E801DE4F5797D8E
:100BC60002FF1219B8D28AE5E4540F4470F5E4D254
:100BD600AAD288E5E454F04406F5E4D2A800C28916
:100BE600C28BD2AF020B36121785E49003A4F07FB6
:100BF600A87E611219D49003DDE02402FF9003DC85
:100C0600E0340090039AF0A3EFF0F57A7B017A01C5
:100C160079C6756D407F3F1218B27F351219EC9078
:100C2600039BE024C0F090039AE034FFF090039F0A
:100C36007401F0A37402F0A37406F090039AE0FE28
:100C4600A3E0FF7C007D3C120E66A3EFF0AD7A7F39
:100C5600061219B8C2AFD2AAC28BD2AF757901906B
:100C6600039EE07003020B36E4F09003A212148B8D
:100C76007562017563037564D67BFF7A19798712ED
:100C86000F349003DEE0FEA3E0FFC39003A3E09FD2
:100C96009003A2E09E5006E4F579020B36E4900339
:100CA600A2F0A3F0757904020B367F341219EC75A5
:100CB600790390038FE07003020B36E4F07B01901A
:100CC600039104F0A37400F0A37400F0900396E07F
:100CD6006017A3E412148B7562017563037564D6FD
:100CE6007BFF7A19798D120F34757902C2AFD288DB
:100CF600E5E454F0440EF5E4D2A800C289D2AF026E
:100D06000B36E709F608DFFA8046E709F208DFFA4C
:100D1600803E88828C83E709F0A3DFFA8032E309FC
:100D2600F608DFFA8078E309F208DFFA8070888235
:100D36008C83E309F0A3DFFA806489828A83E0A3C7
:100D4600F608DFFA805889828A83E0A3F208DFFA80
:100D5600804C80D280FA80C680D4806980F280334D
:100D6600801080A680EA809A80A880DA80E280CA15
:100D7600803389828A83ECFAE493A3C8C582C8CCFF
:100D8600C583CCF0A3C8C582C8CCC583CCDFE9DE59
:100D9600E7800D89828A83E493A3F608DFF9ECFAEB
:100DA600A9F0EDFB2289828A83ECFAE0A3C8C5820A
:100DB600C8CCC583CCF0A3C8C582C8CCC583CCDF5C
:100DC600EADEE880DB89828A83E493A3F208DFF90E
:100DD60080CC88F0EF60010E4E60C388F0ED2402EF
:100DE600B4040050B9F582EB2402B4040050AF23DA
:100DF60023458223900D5873BB010689828A83E0BE
:100E0600225002E722BBFE02E32289828A83E49310
:100E160022BB010CE58229F582E5833AF583E022BF
:100E26005006E92582F8E622BBFE06E92582F8E2AD
:100E360022E58229F582E5833AF583E49322F8BB1D
:100E4600010DE58229F582E5833AF583E8F0225023
:100E560006E92582C8F622BBFE05E92582C8F222EC
:100E6600BC000BBE0029EF8DF084FFADF022E4CC70
:100E7600F875F008EF2FFFEE33FEEC33FCEE9DEC39
:100E8600984005FCEE9DFE0FD5F0E9E4CEFD22ED7F
:100E9600F8F5F0EE8420D21CFEADF075F008EF2FC9
:100EA600FFED33FD4007985006D5F0F222C398FDBA
:100EB6000FD5F0EA22C5F0F8A3E028F0C5F0F8E572
:100EC60082158270021583E038F022BB010A8982FE
:100ED6008A83E0F5F0A3E022500687F009E719229D
:100EE600BBFE07E3F5F009E3192289828A83E493BE
:100EF600F5F074019322BB010789828A83020EBB37
:100F0600500B09C5F027F7C5F01937F722BBFE0DC0
:100F160009F8E325F0F3C5F019E338F322F88982DE
:100F26008A8374019325F0C5F0F8E49338228B5F29
:100F36008A608961E4F565E55A60030210BD752B88
:100F460003752C76F52D752F127530767531401296
:100F56000DFEFF700BAB62AA63A964120DFE700E44
:100F6600AB62AA63A964120DFE7075EF6072AB5F87
:100F7600AA60A961120DFE600B752E808B668A67CA
:100F86008968800C752EC08562668563678564688E
:100F9600AB66AA67A96812182C74322565F8A607ED
:100FA600AB66AA67A968AF6505658F82758300126F
:100FB6000E176007E565C3941040D5E565C3941028
:100FC600501874072565F565E565C39417500B74CD
:100FD6002B2565F8769B056580EEE4F5420210B494
:100FE600AB5FAA60A961120DFE70030210B4AB627A
:100FF600AA63A964120DFE70030210B4752E8075E3
:101006004203754376E4F5447545C0754612754747
:1010160076754840AB5FAA60A96112182C74322518
:1010260065F8A607AB5FAA60A961AF6505658F8203
:10103600758300120E176007E565C3941040D5E569
:1010460065C39410501874072565F565E565C39466
:1010560017500B742B2565F8769B056580EEE4F535
:1010660065AB62AA63A96412182C74492565F8A6B3
:1010760007AB62AA63A964AF6505658F82758300B5
:10108600120E176007E565C3941040D5E565C39455
:10109600105018741E2565F565E565C3942E500B32
:1010A600742B2565F8769B056580EEE4F559755A2F
:1010B600011208197F01227F0022C0E0C0F0C08320
:1010C600C082C0D075D000C000C001C002C003C03D
:1010D60004C005C006C0079003E0E07002A3E070FC
:1010E6000990039DF0A3040211F9900390E06003B8
:1010F6000211AD7F407E011219D47F3F121954EFC1
:10110600900394F0A3E4F07F3F121954900394E007
:10111600FEA3E04FFF900394EEF0FEA3EFF0D3940E
:10112600FFEE9400404F9016CBE493FE740193FFBC
:10113600900394E0FCA3E0FDD39FEC9E5037ED2492
:1011460002FFE43C90038DF0A3EFF0F57AFD7F06F5
:101156001219B8900392E475F002120EBB90039038
:101166007401F0D288E5E454F04406F5E4D2A80010
:10117600C2890212017F361219EC7F3A1219EC90DD
:101186000390E4F0900399F07D067F081219B8C227
:10119600AFD288E5E454F0440EF5E4D2A800C28943
:1011A600D2AF7579028054900391E0FBA3E0FAA3D5
:1011B600E0F990038DA3E0F5727F3F12187190035A
:1011C60094E0FCA3E0FDEC900000F0A3EDF09003AA
:1011D60090E4F090038F04F0900394E0FEA3E024E3
:1011E60003F58274003EF583E05480900396F090F8
:1011F6000399E4F07D067F081219B8D007D006D00F
:1012060005D004D003D002D001D000D0D0D082D0F7
:1012160083D0F0D0E032C0E0C0F0C083C082C0D03E
:1012260075D000C000C001C002C003C004C005C024
:1012360006C0079003E0E07002A3E0707C90039D77
:10124600E0601C90039FE0FBA3E0FAA3E0F99003A3
:101256009AA3E0F56D7F3F1218B2C2AA02130E9050
:10126600039FE0FBA3E0FAA3E0F9756D3C7F3F1214
:1012760018B2C390039BE0948490039AE0940050C4
:10128600139003A4E0700D7D047F081219B8900333
:10129600A47401F09003A0E475F03C120EBB900319
:1012A6009BE024C4F090039AE034FFF090039CE0A6
:1012B60014F07054A304F0804F90038EE024C49081
:1012C600038DE034FFC394015013900399E0700D31
:1012D6007D047F081219B89003997401F090039168
:1012E600E0FBA3E0FAA3E0F975723B7F3F121871A9
:1012F60090038EE024C5F090038DE034FFF0900358
:1013060092E475F03B120EBBC28BD007D006D00517
:10131600D004D003D002D001D000D0D0D082D08368
:10132600D0F0D0E0328F5EE57775F018A424B5F9D9
:10133600741635F0FA7BFF78A67C037D017E007F6C
:1013460018120DD8E55E24FE601C14602714605E3A
:10135600240360030213ECE577D3940050030213D1
:10136600EC15770213ECE57814FFE577C39F50760A
:10137600057780729003B7E0FBA3E0FAA3E0F912C9
:101386000ED1FFC39003BBE09F9003BAE095F050E7
:1013960055E577700774FF75F0EC8047E577B40183
:1013A6000774FF75F09C803B74FFF5F08035900361
:1013B600B7E0FBA3E0FAA3E0F9120ED1FFD3900346
:1013C600BDE09F9003BCE095F0401BE57770057586
:1013D600F014800FE577B40106E475F0648004E448
:1013E60075F001120EFC0215A0758C96858C8A5339
:1013F60089FC438902438E04D28C43C18043E601B3
:10140600D2AFE4F55AF55BF55DC2A300000000001B
:1014160000000000D2A3752B07752C76F52D752ECE
:101426000C752F217530A0753107753224F53312EE
:101436000816E55A640160FA752B03752C76E4F5F7
:101446002D752E80752F127530767531407F107888
:1014560032749BF608DFFC754203754376E4F54467
:101466007545C07546127547767548407F107849B0
:10147600749BF608DFFC7F10E4F559120816E55A4E
:10148600640160FA2275F001120EBBAFF0FE8E5FAA
:101496008F60E4F561FBF562F56375642775651089
:1014A600E560455F700A9003D67430F0E4A3F0223D
:1014B6007A05AC64AD65AE5FAF60120E668E628F64
:1014C60063EB64016006E563456260267B01AE5FFF
:1014D600AF60AC64AD65120E668C5F8D60E563240B
:1014E60030FFAE61056174D62EF582E43403F583D0
:1014F600EFF0AE64AF657C007D0A120E668E648FD7
:1015060065DAAFAF61056174D62FF582E43403F571
:1015160083E4F02275817C02155B020ABEE493A384
:10152600F8E493A34003F68001F208DFF48029E48F
:1015360093A3F85407240CC8C333C4540F4420C8DB
:10154600834004F456800146F6DFE4800B01020472
:1015560008102040809018F0E47E019360BCA3FF41
:10156600543F30E509541FFEE493A360010ECF54A7
:10157600C025E060A840B8E493A3FAE493A3F8E496
:1015860093A3C8C582C8CAC583CAF0A3C8C582C802
:10159600CAC583CADFE9DEE780BEE57775F018A421
:1015A60024B5F9741635F0FA7BFF78BE7C037D010D
:1015B6007E007F18120DD8E57724FD602504703370
:1015C6009003E0E07004A3E06401700B7562FF75A0
:1015D600631675649D80397562FF7563167564A020
:1015E600802E7562FF7563167564AC7BFF7A16797B
:1015F600A380239003CFE0FBA3E0FAA3E0F9120E49
:10160600D1FFAEF01214947562017563037564D64A
:101616007B017A0379BE120F3422C2EDD2EC30ED93
:10162600FDAFBEEFD394607E0040027E01EFC3940F
:101636007B7D0050027D01ED5E60037F0322EFD3C8
:1016460094A47E0040027E01EFC394BF7D00500249
:101656007D01ED5E60037F0422EFD394C47E0040DB
:10166600027E01EFC394DF7D0050027D01ED5E60D6
:10167600037F0122EFC394007E0040027E01EFC388
:10168600943D7F0050027F01EF5E60037F02227F60
:10169600003095027F05225278005478005072651A
:1016A600737320533100746F207374617274005326
:1016B600657420706B742E206C656E67746800000C
:1016C6000103DC010E01C24E756D626572206F6604
:1016D600207061636B6574730103DE006403E85276
:1016E6006164696F204D6F646500000000000000B2
:1016F6000103E000000001537461727400000000F1
:10170600000000000000000000000000000000C013
:10171600E0C0F0C083C082C0D075D000C000C00158
:10172600C002C003C004C005C006C007E5C054F02F
:101736002440601324E0702AAF5D055D742B2FF8FA
:10174600E6F5C2C2C5801B155CE55C600DAF5D05A4
:101756005D742B2FF8E6F5C28008D2C4755B0012C3
:101766000819C2C0D007D006D005D004D003D002D5
:10177600D001D000D0D0D082D083D0F0D0E032904B
:1017860003DCE0FCA3E0FDEC9001C6F0A3EDF090D5
:1017960003A6E4F0A37402F09003DDE02401FF90B9
:1017A60003DCE03400FED39003A7E09F9003A6E09D
:1017B6009E50251217DF9003A6E0FCA3E024C6F591
:1017C6008274013CF583EFF09003A7E004F070C843
:1017D6009003A6E004F080C022AC73AD74AE75AF82
:1017E600767810EC4D4E4F70047CA57DA5C3EC13A6
:1017F600FCED13FDEE13FEEF13FF5010EC64CCFC72
:10180600ED644CFDEE644EFEEF64CEFFD8DF8C73C4
:101816008D748E758F76EE547FFE228E738F747460
:10182600A5F575F57622856582758300120E17FF7C
:10183600BF24047F828033BF40047F80802CEF70FA
:10184600047F9B8025EFD3941F4005EF9424401618
:10185600EFD394244005EF9440400BEFD3944040DF
:1018660009EF945B500474802FFF228B6F8A708976
:1018760071C2FA2081FDEF44C0F5A3A2FFE43360F4
:10188600FAC2FFE4FFEFC39572501EE4F5A3A2FF70
:10189600E43360FAC2FFAB6FAA70A9718F827583B9
:1018A60000E5A3120E440F80DCD2FA228B6A8A6B03
:1018B600896CC2FA2081FDEF4440F5A3A2FFE43310
:1018C60060FAC2FFE4FFEFC3956D501BAB6AAA6BCB
:1018D600A96C8F82758300120E17F5A3A2FFE4335D
:1018E60060FAC2FF0F80DFD2FA224603DC010E0047
:1018F60064000001770001780441038C004103A5D0
:10190600000179044B039A00000000000101C600A3
:1019160000004D038D0000000001000000000000E3
:101926000000017C0100209314E57C601EAF7B055E
:101936007BEFB46416E4F57CF57B7F0122AF7B0573
:101946007BEFB46406757C01E4F57B7F0022C2FA66
:101956002081FDEF4480F5A3A2FFE43360FAC2FFC5
:10196600E4F5A3A2FFE43360FAC2FFAFA3D2FA22E2
:1019760057616974696E6720666F7200646174618D
:101986000053656E743A0052656365697665643A1C
:101996000022DDDDDDDD199719971997199719973B
:1019A6000902120001010040320904000000FFFF95
:1019B600FF00C2FA2081FD8FA3A2FFE43360FAC2C2
:1019C600FF8DA3A2FFE43360FAC2FFD2FA22000021
:1019D600000000000000000000000000EF1F700182
:1019E6001E144E70E922C2FA2081FD8FA3A2FFE4E5
:1019F6003360FAC2FFD2FA2275BC3C75E840D2EFDA
:101A060075D1088FBB75BA1F22080023313B7B8333
:101A16001322F80042B610181D1CC700B2EA2A00AD
:0D1A26001F598135094E2906040600FF8E68
:00000001FF
