:06000000020D2D0208D3E1
:10001300020A2F753701E537601CE5387018AF3ACF
:10002300053A74082FF8E6F5396006753801D2C52C
:0700330022E4F537F53A2243
:10003B00020F2E8B468A478948120611FD7F0B1241
:10004B0011B0AB46AA47A94890000112062AFD7FC2
:10005B000C1211B0AB46AA47A94890000212062A0F
:10006B00FD7F0D1211B0AB46AA47A94890000312B1
:10007B00062AFD7F0E1211B0AB46AA47A948900085
:10008B000412062AFD7F0F1211B0AB46AA47A948EE
:10009B0090000512062AFD7F101211B0AB46AA473D
:1000AB00A94890000612062AFD7F111211B0AB462B
:1000BB00AA47A94890000712062AFD7F121211B019
:1000CB00AB46AA47A94890000812062AFD7F1312D7
:1000DB0011B0AB46AA47A94890000912062AFD7F2A
:1000EB00141211B0AB46AA47A94890000A12062A6F
:1000FB00FD7F0A1211B0AB46AA47A94890000B121C
:10010B00062AFD7F151211B0AB46AA47A9489000ED
:10011B000C12062AFD7F211211B0AB46AA47A94843
:10012B0090000D12062AFD7F221211B0AB46AA4792
:10013B00A94890000E12062AFD7F181211B0AB468B
:10014B00AA47A94890000F12062AFD7F191211B079
:10015B00AB46AA47A94890001012062AFD7F1A1237
:10016B0011B0AB46AA47A94890001112062AFD7F91
:10017B001B1211B0AB46AA47A94890001212062ACF
:10018B00FD7F1C1211B0AB46AA47A9489000131271
:10019B00062AFD7F1D1211B0AB46AA47A948900055
:1001AB001412062AFD7F231211B0AB46AA47A948A9
:1001BB0090001512062AFD7F241211B0AB46AA47F8
:1001CB00A94890001612062AFD7F251211B0AB46E6
:1001DB00AA47A94890001712062AFD7F261211B0D4
:1001EB00AB46AA47A94890001812062AFD7F291290
:1001FB0011B0AB46AA47A94890001912062AFD7FF9
:10020B002C1211B0AB46AA47A94890001A12062A25
:10021B00FD7F2D1211B0AB46AA47A94890001B12C7
:10022B00062AFD7F2E1211B0AB46AA47A9489000B3
:10023B001C12062AFD7F031211B0AB46AA47A94830
:10024B0090001D12062AFDE4FF1211B0AB46AA471F
:10025B00A94890001E12062AFD7F021211B0AB4670
:10026B00AA47A94890001F12062AFD7F071211B05A
:10027B00AB46AA47A94890002012062AFD7F081218
:10028B0011B0AB46AA47A94890002112062AFD7F60
:10029B00091211B0AB46AA47A94890002212062AB0
:1002AB00FD7F060211B053D9BFE4F5B943B980F510
:1002BB00450545E545B414F943B9C0E5B930E5FB4F
:1002CB0043A90275B28375E10775E2C175A43F7549
:1002DB00A59075A69975F2BB75F3FD75D4C075D550
:1002EB004C75D602120C027F091211F675A14075DE
:1002FB00F80875A20143F801D2FA7F017E001211B2
:10030B00CCC2FA7F017E001211CCD2FA7F297E007B
:10031B001211CCC2FA2081FD75A330A2FFE4336029
:10032B00FAC2FFD2FA7BFF7A12790712003E9012C3
:10033B002AE493FD7F3E1211B0120DB9D2BAE557E4
:10034B007003020400147003020478147003020497
:10035B00C31470030204CB1470E47FFA7E001211F5
:10036B00CC120E3990038CEFF09003A5E06F600870
:10037B0090038CE0FF120B3E90038CE09003A5F0F2
:10038B00E555B403B9121145EF60B3C2AF9003E06A
:10039B00E07004A3E064017031755702754AFF7574
:1003AB004B11754C9B7BFF7A11798F120747E4FD3C
:1003BB00FF1211B0D28AE5E4540F44F0F5E4D2AA4F
:1003CB00D288E5E454F0440E801DE4F5577D02FF1E
:1003DB001211B0D28AE5E4540F4470F5E4D2AAD2DC
:1003EB0088E5E454F04406F5E4D2A800C289C28B38
:1003FB00D2AF020349120F9EE49003A4F07FA87EB4
:10040B00611211CC9003DDE02402FF9003DCE03499
:10041B000090039AF0A3EFF0F5587B017A0179C6AF
:10042B00754A407F3F1210CB7F351211E490039B2E
:10043B00E024C0F090039AE034FFF090039F740126
:10044B00F0A37402F0A37406F090039AE0FEA3E00D
:10045B00FF7C007D3C120679A3EFF0AD587F0612AE
:10046B0011B0C2AFD2AAC28BD2AF75570190039E07
:10047B00E07003020349E4F09003A2120C9E754A4C
:10048B0001754B03754CD67BFF7A1179A012074788
:10049B009003DEE0FEA3E0FFC39003A3E09F900375
:1004AB00A2E09E5006E4F557020349E49003A2F044
:1004BB00A3F07557040203497F341211E4755703F7
:1004CB0090038FE07003020349E4F07B01900391EA
:1004DB0004F0A37400F0A37400F0900396E060178F
:1004EB00A3E4120C9E754A01754B03754CD67BFF2A
:1004FB007A1179A6120747755702C2AFD288E5E485
:10050B0054F0440EF5E4D2A800C289D2AF020349DD
:10051B00E709F608DFFA8046E709F208DFFA803EC2
:10052B0088828C83E709F0A3DFFA8032E309F608AF
:10053B00DFFA8078E309F208DFFA807088828C8317
:10054B00E309F0A3DFFA806489828A83E0A3F608CB
:10055B00DFFA805889828A83E0A3F208DFFA804CA5
:10056B0080D280FA80C680D4806980F2803380107C
:10057B0080A680EA809A80A880DA80E280CA8033E5
:10058B0089828A83ECFAE493A3C8C582C8CCC5835D
:10059B00CCF0A3C8C582C8CCC583CCDFE9DEE7802D
:1005AB000D89828A83E493A3F608DFF9ECFAA9F0AC
:1005BB00EDFB2289828A83ECFAE0A3C8C582C8CC02
:1005CB00C583CCF0A3C8C582C8CCC583CCDFEADE1B
:1005DB00E880DB89828A83E493A3F208DFF980CC7D
:1005EB0088F0EF60010E4E60C388F0ED2402B40476
:1005FB000050B9F582EB2402B4040050AF2323451D
:10060B00822390056B73BB010689828A83E022509B
:10061B0002E722BBFE02E32289828A83E49322BB98
:10062B00010CE58229F582E5833AF583E022500639
:10063B00E92582F8E622BBFE06E92582F8E222E5EF
:10064B008229F582E5833AF583E49322F8BB010D09
:10065B00E58229F582E5833AF583E8F0225006E935
:10066B002582C8F622BBFE05E92582C8F222BC0012
:10067B000BBE0029EF8DF084FFADF022E4CCF875B2
:10068B00F008EF2FFFEE33FEEC33FCEE9DEC9840C1
:10069B0005FCEE9DFE0FD5F0E9E4CEFD22EDF8F55D
:1006AB00F0EE8420D21CFEADF075F008EF2FFFEDBD
:1006BB0033FD4007985006D5F0F222C398FD0FD5B5
:1006CB00F0EA22C5F0F8A3E028F0C5F0F8E58215B2
:1006DB008270021583E038F022BB010A89828A837B
:1006EB00E0F5F0A3E022500687F009E71922BBFEE4
:1006FB0007E3F5F009E3192289828A83E493F5F085
:10070B0074019322BB010789828A830206CE500BA8
:10071B0009C5F027F7C5F01937F722BBFE0D09F80D
:10072B00E325F0F3C5F019E338F322F889828A83C5
:10073B0074019325F0C5F0F8E49338228B478A486F
:10074B008949E4F54DE53760030208D07508037558
:10075B000976F50A750C12750D76750E4012061199
:10076B00FF700BAB4AAA4BA94C120611700EAB4A89
:10077B00AA4BA94C1206117075EF6072AB47AA48D1
:10078B00A949120611600B750B808B4E8A4F89504D
:10079B00800C750BC0854A4E854B4F854C50AB4E2C
:1007AB00AA4FA950121045740F254DF8A607AB4E52
:1007BB00AA4FA950AF4D054D8F8275830012062AA3
:1007CB006007E54DC3941040D5E54DC39410501808
:1007DB007407254DF54DE54DC39417500B74082543
:1007EB004DF8769B054D80EEE4F51F0208C7AB472D
:1007FB00AA48A94912061170030208C7AB4AAA4BB3
:10080B00A94C12061170030208C7750B80751F03E4
:10081B00752076E4F5217522C07523127524767543
:10082B002540AB47AA48A949121045740F254DF82E
:10083B00A607AB47AA48A949AF4D054D8F827583D3
:10084B000012062A6007E54DC3941040D5E54DC351
:10085B00941050187407254DF54DE54DC394175062
:10086B000B7408254DF8769B054D80EEE4F54DABEA
:10087B004AAA4BA94C1210457426254DF8A607AB76
:10088B004AAA4BA94CAF4D054D8F827583001206BA
:10089B002A6007E54DC3941040D5E54DC394105025
:1008AB0018741E254DF54DE54DC3942E500B740851
:1008BB00254DF8769B054D80EEE4F5367537011224
:1008CB0000197F01227F0022C0E0C0F0C083C082EC
:1008DB00C0D075D000C000C001C002C003C004C0AE
:1008EB0005C006C0079003E0E07002A3E07009901A
:1008FB00039DF0A304020A0C900390E0600302092D
:10090B00C07F407E011211CC7F3F12116DEF90031F
:10091B0094F0A3E4F07F3F12116D900394E0FEA3DB
:10092B00E04FFF900394EEF0FEA3EFF0D394FFEEB5
:10093B009400404F900EE4E493FE740193FF9003F8
:10094B0094E0FCA3E0FDD39FEC9E5037ED2402FF17
:10095B00E43C90038DF0A3EFF0F558FD7F061211E8
:10096B00B0900392E475F0021206CE9003907401DE
:10097B00F0D288E5E454F04406F5E4D2A800C2892D
:10098B00020A147F361211E47F3A1211E49003909D
:10099B00E4F0900399F07D067F081211B0C2AFD23C
:1009AB0088E5E454F0440EF5E4D2A800C289D2AF36
:1009BB007557028054900391E0FBA3E0FAA3E0F992
:1009CB0090038DA3E0F5447F3F12108A900394E0CF
:1009DB00FCA3E0FDEC900000F0A3EDF0900390E49D
:1009EB00F090038F04F0900394E0FEA3E02403F552
:1009FB008274003EF583E05480900396F090039947
:100A0B00E4F07D067F081211B0D007D006D005D0D8
:100A1B0004D003D002D001D000D0D0D082D083D06C
:100A2B00F0D0E032C0E0C0F0C083C082C0D075D03F
:100A3B0000C000C001C002C003C004C005C006C096
:100A4B00079003E0E07002A3E0707C90039DE060F0
:100A5B001C90039FE0FBA3E0FAA3E0F990039AA399
:100A6B00E0F54A7F3F1210CBC2AA020B2190039FE5
:100A7B00E0FBA3E0FAA3E0F9754A3C7F3F1210CBF1
:100A8B00C390039BE0948490039AE09400501390DE
:100A9B0003A4E0700D7D047F081211B09003A474C1
:100AAB0001F09003A0E475F03C1206CE90039BE09E
:100ABB0024C4F090039AE034FFF090039CE014F010
:100ACB007054A304F0804F90038EE024C490038DE8
:100ADB00E034FFC394015013900399E0700D7D0433
:100AEB007F081211B09003997401F0900391E0FB11
:100AFB00A3E0FAA3E0F975443B7F3F12108A900301
:100B0B008EE024C5F090038DE034FFF0900392E467
:100B1B0075F03B1206CEC28BD007D006D005D004A1
:100B2B00D003D002D001D000D0D0D082D083D0F06F
:100B3B00D0E0328F46E55575F018A424CEF9740E2B
:100B4B0035F0FA7BFF78A67C037D017E007F1812BF
:100B5B0005EBE54624FE601C14602714605E24033D
:100B6B006003020BFFE555D394005003020BFF15F6
:100B7B0055020BFFE55614FFE555C39F50760555FF
:100B8B0080729003B7E0FBA3E0FAA3E0F91206E44E
:100B9B00FFC39003BBE09F9003BAE095F05055E57F
:100BAB0055700774FF75F0EC8047E555B401077479
:100BBB00FF75F09C803B74FFF5F080359003B7E038
:100BCB00FBA3E0FAA3E0F91206E4FFD39003BDE028
:100BDB009F9003BCE095F0401BE555700575F01434
:100BEB00800FE555B40106E475F0648004E475F0FC
:100BFB000112070F020DB9758C96858C8A5389FCEF
:100C0B00438902438E04D28C43C18043E601D2AFA9
:100C1B00E4F537F538F53AC2A300000000000000F8
:100C2B000000D2A3750807750976F50A750B0C75CC
:100C3B000C21750DA0750E07750F24F510120016FB
:100C4B00E537640160FA750803750976E4F50A75F2
:100C5B000B80750C12750D76750E407F10780F7426
:100C6B009BF608DFFC751F03752076E4F5217522D2
:100C7B00C07523127524767525407F107826749BDA
:100C8B00F608DFFC7F10E4F536120016E537640139
:100C9B0060FA2275F0011206CEAFF0FE8E478F4838
:100CAB00E4F549FBF54AF54B754C27754D10E548B6
:100CBB004547700A9003D67430F0E4A3F0227A050E
:100CCB00AC4CAD4DAE47AF481206798E4A8F4BEB0D
:100CDB0064016006E54B454A60267B01AE47AF4891
:100CEB00AC4CAD4D1206798C478D48E54B2430FF4B
:100CFB00AE49054974D62EF582E43403F583EFF043
:100D0B00AE4CAF4D7C007D0A1206798E4C8F4DDABE
:100D1B00AFAF49054974D62FF582E43403F583E46C
:100D2B00F022787FE4F6D8FD75815A020D74020229
:100D3B00B1E493A3F8E493A34003F68001F208DF38
:100D4B00F48029E493A3F85407240CC8C333C45488
:100D5B000F4420C8834004F456800146F6DFE4803C
:100D6B000B0102040810204080901109E47E0193CE
:100D7B0060BCA3FF543F30E509541FFEE493A3600E
:100D8B00010ECF54C025E060A840B8E493A3FAE469
:100D9B0093A3F8E493A3C8C582C8CAC583CAF0A3BA
:100DAB00C8C582C8CAC583CADFE9DEE780BEE55580
:100DBB0075F018A424CEF9740E35F0FA7BFF78BECB
:100DCB007C037D017E007F181205EBE55524FD6049
:100DDB00250470339003E0E07004A3E06401700B12
:100DEB00754AFF754B0E754CB68039754AFF754BBE
:100DFB000E754CB9802E754AFF754B0E754CC57B25
:100E0B00FF7A0E79BC80239003CFE0FBA3E0FAA31B
:100E1B00E0F91206E4FFAEF0120CA7754A01754B10
:100E2B0003754CD67B017A0379BE12074722C2EDBC
:100E3B00D2EC30EDFDAFBEEFD394607E0040027E6E
:100E4B0001EFC3947B7D0050027D01ED5E60037F5B
:100E5B000322EFD394A47E0040027E01EFC394BF24
:100E6B007D0050027D01ED5E60037F0422EFD39481
:100E7B00C47E0040027E01EFC394DF7D0050027DF3
:100E8B0001ED5E60037F0122EFC394007E00400200
:100E9B007E01EFC3943D7F0050027F01EF5E600344
:100EAB007F02227F003095027F0522527800547812
:100EBB0000507265737320533100746F207374612B
:100ECB0072740053657420706B742E206C656E67A2
:100EDB00746800000103DC010E01C24E756D626582
:100EEB0072206F66207061636B6574730103DE00A3
:100EFB006403E8526164696F204D6F646500000004
:100F0B00000000000103E0000000015374617274E3
:100F1B0000000000000000000000000000000000C6
:100F2B00000000C0E0C0F0C083C082C0D075D0000C
:100F3B00C000C001C002C003C004C005C006C0078A
:100F4B00E5C054F02440601324E0702AAF3A053A10
:100F5B0074082FF8E6F5C2C2C5801B1539E5396058
:100F6B000DAF3A053A74082FF8E6F5C28008D2C4E3
:100F7B00753800120019C2C0D007D006D005D004B6
:100F8B00D003D002D001D000D0D0D082D083D0F00B
:100F9B00D0E0329003DCE0FCA3E0FDEC9001C6F066
:100FAB00A3EDF09003A6E4F0A37402F09003DDE050
:100FBB002401FF9003DCE03400FED39003A7E09FF5
:100FCB009003A6E09E5025120FF89003A6E0FCA319
:100FDB00E024C6F58274013CF583EFF09003A7E0A3
:100FEB0004F070C89003A6E004F080C022AC51ADB1
:100FFB0052AE53AF547810EC4D4E4F70047CA57D20
:10100B00A5C3EC13FCED13FDEE13FEEF13FF501015
:10101B00EC64CCFCED644CFDEE644EFEEF64CEFF55
:10102B00D8DF8C518D528E538F54EE547FFE228E0F
:10103B00518F5274A5F553F55422854D827583005B
:10104B0012062AFFBF24047F828033BF40047F80B7
:10105B00802CEF70047F9B8025EFD3941F4005EF0E
:10106B0094244016EFD394244005EF9440400BEFAB
:10107B00D394404009EF945B500474802FFF228B74
:10108B00418A428943C2FA2081FDEF44C0F5A3A2F5
:10109B00FFE43360FAC2FFE4FFEFC39544501EE454
:1010AB00F5A3A2FFE43360FAC2FFAB41AA42A94306
:1010BB008F82758300E5A31206570F80DCD2FA22CC
:1010CB008B478A488949C2FA2081FDEF4440F5A33A
:1010DB00A2FFE43360FAC2FFE4FFEFC3954A501B53
:1010EB00AB47AA48A9498F8275830012062AF5A33C
:1010FB00A2FFE43360FAC2FF0F80DFD2FA2246036D
:10110B00DC010E0064000001550001560441038C04
:10111B00004103A5000157044B039A000000000097
:10112B000101C60000004D038D000000000100000E
:10113B00000000000000015A0100209314E55A60E2
:10114B001EAF590559EFB46416E4F55AF5597F01F2
:10115B0022AF590559EFB46406755A01E4F5597F6E
:10116B000022C2FA2081FDEF4480F5A3A2FFE433F5
:10117B0060FAC2FFE4F5A3A2FFE43360FAC2FFAF4B
:10118B00A3D2FA2257616974696E6720666F720089
:10119B00646174610053656E743A005265636569EE
:1011AB007665643A00C2FA2081FD8FA3A2FFE43377
:1011BB0060FAC2FF8DA3A2FFE43360FAC2FFD2FA3A
:1011CB00220000000000000000000000000000EF03
:1011DB001F70011E144E70E922C2FA2081FD8FA3ED
:1011EB00A2FFE43360FAC2FFD2FA2275BC3C75E869
:1011FB0040D2EF75D1088FBB75BA1F220800216250
:10120B00767B830322F80042B610181D1CC700B270
:10121B00EA2A001F598135090E2906040600FF8EA4
:00000001FF
