:1000000002026675BC3C75E840D2EF75D1088FBB23
:0800100075BA1F220146000031
:10001B000204BF54696D657230312E6300C2EDD29C
:07002B00EC30EDFDAFBE2239
:10003B000202F28B3C8A3D893EE4F542E5376003D0
:10004B000201C7750803750976F50A750C12750D53
:10005B0076750E40120434FF700BAB3FAA40A941DA
:10006B00120434700EAB3FAA40A9411204347075D0
:10007B00EF6072AB3CAA3DA93E120434600B750BCA
:10008B00808B438A448945800C750BC0853F438523
:10009B004044854145AB43AA44A94512047A740FE9
:1000AB002542F8A607AB43AA44A945AF4205428FA8
:1000BB008275830012044D6007E542C3941040D54E
:1000CB00E542C39410501874072542F542E542C32C
:1000DB009417500B74082542F8769B054280EEE48A
:1000EB00F51F0201BEAB3CAA3DA93E1204347003BE
:1000FB000201BEAB3FAA40A94112043470030201B6
:10010B00BE750B80751F03752076E4F5217522C033
:10011B00752312752476752540AB3CAA3DA93E127A
:10012B00047A740F2542F8A607AB3CAA3DA93EAF53
:10013B004205428F8275830012044D6007E542C36E
:10014B00941040D5E542C39410501874072542F51E
:10015B0042E542C39417500B74082542F8769B0571
:10016B004280EEE4F542AB3FAA40A94112047A74F7
:10017B00262542F8A607AB3FAA40A941AF4205424C
:10018B008F8275830012044D6007E542C3941040C3
:10019B00D5E542C394105018741E2542F542E54232
:1001AB00C3942E500B74082542F8769B054280EEC3
:1001BB00E4F5367537011205047F01227F002275A5
:1001CB008C96858C8A5389FC438902438E04D28C8E
:1001DB0043C18043E601D2AFE4F537F538F53AC2B7
:1001EB00A3000000000000000000D2A375080775F3
:1001FB000976F50A750B0C750C21750DA0750E079C
:10020B00750F24F510120501E537640160FA7508C6
:10021B0003750976E4F50A750B80750C12750D766E
:10022B00750E407F10780F749BF608DFFC751F036B
:10023B00752076E4F5217522C07523127524767529
:10024B0025407F107826749BF608DFFC7F10E4F5C1
:10025B0036120501E537640160FA22787FE4F6D89F
:10026B00FD7581470202AD020362E493A3F8E493A8
:10027B00A34003F68001F208DFF48029E493A3F88E
:10028B005407240CC8C333C4540F4420C883400400
:10029B00F456800146F6DFE4800B010204081020BF
:1002AB004080900014E47E019360BCA3FF543F3068
:1002BB00E509541FFEE493A360010ECF54C025E063
:1002CB0060A840B8E493A3FAE493A3F8E493A3C81B
:1002DB00C582C8CAC583CAF0A3C8C582C8CAC583AC
:1002EB00CADFE9DEE780BEC0E0C0F0C083C082C0D9
:1002FB00D075D000C000C001C002C003C004C0054F
:10030B00C006C007E5C054F02440601324E0702AF7
:10031B00AF3A053A74082FF8E6F5C2C2C5801B1533
:10032B0039E539600DAF3A053A74082FF8E6F5C296
:10033B008008D2C4753800120504C2C0D007D0069D
:10034B00D005D004D003D002D001D000D0D0D082C1
:10035B00D083D0F0D0E03253D9BFE4F5B943B980A4
:10036B00F53B053BE53BB414F943B9C0E5B930E5C2
:10037B00FB43A90275B28375E10775E2C175A43F12
:10038B0075A59075A69975F2BB75F3FD75D4C075FF
:10039B00D54C75D6021201CA753F007540007541E8
:1003AB00007BFF7A00791E12003E7F061200037558
:1003BB003F017B017D027F011203D1C2AF120028E6
:1003CB008F47D2AF80F57EFCEF70085389FCEB4270
:1003DB0089800CBF01095389CFEBC454F04289EFDC
:1003EB007021EDD394034005438E04800B538EFB99
:1003FB00E58E5206EE4DF58EE53F6004D2A9D2AFE5
:10040B00D28C22EF64017020EDD394034005438E10
:10041B0008800B538EF7E58E5206EE4DF58EE53FB9
:10042B006004D2ABD2AFD28E22BB010689828A8303
:10043B00E0225002E722BBFE02E32289828A83E498
:10044B009322BB010CE58229F582E5833AF583E023
:10045B00225006E92582F8E622BBFE06E92582F842
:10046B00E222E58229F582E5833AF583E49322853E
:10047B00428275830012044DFFBF24047F828033B8
:10048B00BF40047F80802CEF70047F9B8025EFD3CF
:10049B00941F4005EF94244016EFD394244005EFAE
:1004AB009440400BEFD394404009EF945B5004749D
:1004BB00802FFF22C0E0C0D0E54630E004C2978019
:1004CB0002D297E54630E104C2A08002D2A0E546F5
:1004DB0030E204C2A78002D2A7E54630E304C2A4EF
:1004EB008002D2A40546E546B40F03754600854746
:1004FB008DD0D0D0E032753701E537601CE5387010
:10050B0018AF3A053A74082FF8E6F53960067538D6
:0A051B0001D2C522E4F537F53A22BB
:00000001FF
