:10000000020324753701E537601CE5387018AF3AF4
:10001000053A74082FF8E6F5396006753801D2C53F
:0700200022E4F537F53A2256
:0D002B0002049C54696D657232332E63002F
:10003B0002042C8B3D8A3E893FE4F543E537600390
:10004B000201C7750803750976F50A750C12750D53
:10005B0076750E401204F0FF700BAB40AA41A9421B
:10006B001204F0700EAB40AA41A9421204F0707555
:10007B00EF6072AB3DAA3EA93F1204F0600B750B0B
:10008B00808B448A458946800C750BC0854044851E
:10009B004145854246AB44AA45A946120536740F25
:1000AB002543F8A607AB44AA45A946AF4305438FA2
:1000BB00827583001205096007E543C3941040D590
:1000CB00E543C39410501874072543F543E543C328
:1000DB009417500B74082543F8769B054380EEE488
:1000EB00F51F0201BEAB3DAA3EA93F1204F07003FF
:1000FB000201BEAB40AA41A9421204F070030201F7
:10010B00BE750B80751F03752076E4F5217522C033
:10011B00752312752476752540AB3DAA3EA93F1277
:10012B000536740F2543F8A607AB3DAA3EA93FAF92
:10013B004305438F827583001205096007E543C3AE
:10014B00941040D5E543C39410501874072543F51C
:10015B0043E543C39417500B74082543F8769B056E
:10016B004380EEE4F543AB40AA41A9421205367435
:10017B00262543F8A607AB40AA41A942AF43054346
:10018B008F827583001205096007E543C394104005
:10019B00D5E543C394105018741E2543F543E5432E
:1001AB00C3942E500B74082543F8769B054380EEC1
:1001BB00E4F5367537011200067F01227F0022BF5E
:1001CB00020E53C8E7E54033333354F842C8800F6F
:1001DB00BF030C5391E7E54033333354F84291EFAF
:1001EB0064027047BB0405438E10800F538EEFEBF8
:1001FB007004C2C88005BB0302D2C8E5406401701D
:10020B0017BD0405438E20800F538EDFED7004C2A3
:10021B00C88005BD0302D2C8E541600CD2ADD2AF98
:10022B00E540B4010343C820D2CA22EF6403704CEB
:10023B00BB0405438E408011538EBFEB7005539169
:10024B00FE8006BB0303439101E54064017019BDB9
:10025B000405438E808011538E7FED70055391FE04
:10026B008006BD0303439101E541600D43E680D257
:10027B00AFE540B4010343912043910422758C9662
:10028B00858C8A5389FC438902438E04D28C43C1EB
:10029B008043E601D2AFE4F537F538F53AC2A30057
:1002AB000000000000000000D2A375080775097656
:1002BB00F50A750B0C750C21750DA0750E07750FD6
:1002CB0024F510120003E537640160FA7508037515
:1002DB000976E4F50A750B80750C12750D76750EA3
:1002EB00407F10780F749BF608DFFC751F03752099
:1002FB0076E4F5217522C075231275247675254099
:10030B007F107826749BF608DFFC7F10E4F536121D
:10031B000003E537640160FA22787FE4F6D8FD75B7
:10032B00814A02036B0203B0E493A3F8E493A34066
:10033B0003F68001F208DFF48029E493A3F8540755
:10034B00240CC8C333C4540F4420C8834004F45650
:10035B00800146F6DFE4800B010204081020408088
:10036B0090057BE47E019360BCA3FF543F30E5090D
:10037B00541FFEE493A360010ECF54C025E060A888
:10038B0040B8E493A3FAE493A3F8E493A3C8C5821B
:10039B00C8CAC583CAF0A3C8C582C8CAC583CADF89
:1003AB00E9DEE780BE53D9BFE4F5B943B980F53B2D
:1003BB00053BE53BB414F943B9C0E5B930E5FB4364
:1003CB00A90275B28375E10775E2C175A43F75A5E6
:1003DB009075A69975F2BB75F3FD75D4C075D54CA8
:1003EB0075D6021202887540007541007542007B7C
:1003FB00FF7A00792E12003E753BFE753C2AE53BD9
:10040B00F404F5CB85CBCDE53CF404F5CA85CACC19
:10041B00754001754101E4FB7D047F021201CA8026
:10042B00FEC0E0C0F0C083C082C0D075D000C00059
:10043B00C001C002C003C004C005C006C007E5C0B0
:10044B0054F02440601324E0702AAF3A053A740844
:10045B002FF8E6F5C2C2C5801B1539E539600DAF23
:10046B003A053A74082FF8E6F5C28008D2C47538FD
:10047B0000120006C2C0D007D006D005D004D003AE
:10048B00D002D001D000D0D0D082D083D0F0D0E039
:10049B0032C0E0C0D075D000C006C007A2CFE43395
:1004AB00601EC2CF0548E548AE477002054714FFF2
:1004BB00BE2729BF1026754700754800B297801CD0
:1004CB00C2CE054AE54AAE497002054914FFBE2764
:1004DB000BBF1008754900754A00B2A0D007D006B3
:1004EB00D0D0D0E032BB010689828A83E022500251
:1004FB00E722BBFE02E32289828A83E49322BB01BB
:10050B000CE58229F582E5833AF583E0225006E972
:10051B002582F8E622BBFE06E92582F8E222E58277
:10052B0029F582E5833AF583E4932285438275832B
:10053B0000120509FFBF24047F828033BF40047F74
:10054B0080802CEF70047F9B8025EFD3941F400598
:10055B00EF94244016EFD394244005EF9440400BC6
:10056B00EFD394404009EF945B500474802FFF222B
:09057B00024700000249000000E3
:00000001FF
