:1000000002086A209314E554601EAF530553EFB401
:100010006416E4F554F5537F0122AF530553EFB452
:0B0020006406755401E4F5537F0022D4
:10003B000209ED8B458A46894712043DFD7F0B1261
:10004B000C61AB45AA46A947900001120456FD7FEF
:10005B000C120C61AB45AA46A9479000021204563C
:10006B00FD7F0D120C61AB45AA46A9479000031208
:10007B000456FD7F0E120C61AB45AA46A9479000B2
:10008B0004120456FD7F0F120C61AB45AA46A9471B
:10009B00900005120456FD7F10120C61AB45AA4669
:1000AB00A947900006120456FD7F11120C61AB4557
:1000BB00AA46A947900007120456FD7F12120C6145
:1000CB00AB45AA46A947900008120456FD7F1312B0
:1000DB000C61AB45AA46A947900009120456FD7F57
:1000EB0014120C61AB45AA46A94790000A1204569C
:1000FB00FD7F0A120C61AB45AA46A94790000B1273
:10010B000456FD7F15120C61AB45AA46A94790001A
:10011B000C120456FD7F21120C61AB45AA46A94770
:10012B0090000D120456FD7F22120C61AB45AA46BE
:10013B00A94790000E120456FD7F18120C61AB45B7
:10014B00AA46A94790000F120456FD7F19120C61A5
:10015B00AB45AA46A947900010120456FD7F1A1210
:10016B000C61AB45AA46A947900011120456FD7FBE
:10017B001B120C61AB45AA46A947900012120456FC
:10018B00FD7F1C120C61AB45AA46A94790001312C8
:10019B000456FD7F1D120C61AB45AA46A947900082
:1001AB0014120456FD7F23120C61AB45AA46A947D6
:1001BB00900015120456FD7F24120C61AB45AA4624
:1001CB00A947900016120456FD7F25120C61AB4512
:1001DB00AA46A947900017120456FD7F26120C6100
:1001EB00AB45AA46A947900018120456FD7F291269
:1001FB000C61AB45AA46A947900019120456FD7F26
:10020B002C120C61AB45AA46A94790001A12045652
:10021B00FD7F2D120C61AB45AA46A94790001B121E
:10022B000456FD7F2E120C61AB45AA46A9479000E0
:10023B001C120456FD7F03120C61AB45AA46A9475D
:10024B0090001D120456FDE4FF120C61AB45AA464B
:10025B00A94790001E120456FD7F02120C61AB459C
:10026B00AA46A94790001F120456FD7F07120C6186
:10027B00AB45AA46A947900020120456FD7F0812F1
:10028B000C61AB45AA46A947900021120456FD7F8D
:10029B0009120C61AB45AA46A947900022120456DD
:1002AB00FD7F06020C618B458A468947E4F54BE5D9
:1002BB0037600302043A750803750976F50A750C65
:1002CB0012750D76750E4012043DFF700BAB48AAEC
:1002DB0049A94A12043D700EAB48AA49A94A120417
:1002EB003D7075EF6072AB45AA46A94712043D609D
:1002FB000B750B808B4C8A4D894E800C750BC08512
:10030B00484C85494D854A4EAB4CAA4DA94E120A15
:10031B00AD740F254BF8A607AB4CAA4DA94EAF4BAE
:10032B00054B8F827583001204566007E54BC3940F
:10033B001040D5E54BC3941050187407254BF54B63
:10034B00E54BC39417500B7408254BF8769B054B64
:10035B0080EEE4F51F020431AB45AA46A94712040F
:10036B003D7003020431AB48AA49A94A12043D70FF
:10037B0003020431750B80751F03752076E4F5219C
:10038B007522C0752312752476752540AB45AA4698
:10039B00A947120AAD740F254BF8A607AB45AA4621
:1003AB00A947AF4B054B8F8275830012045660072C
:1003BB00E54BC3941040D5E54BC39410501874070C
:1003CB00254BF54BE54BC39417500B7408254BF895
:1003DB00769B054B80EEE4F54BAB48AA49A94A1234
:1003EB000AAD7426254BF8A607AB48AA49A94AAF14
:1003FB004B054B8F827583001204566007E54BC388
:10040B00941040D5E54BC394105018741E254BF532
:10041B004BE54BC3942E500B7408254BF8769B057C
:10042B004B80EEE4F536753701120BD97F01227F35
:10043B000022BB010689828A83E0225002E722BB9D
:10044B00FE02E32289828A83E49322BB010CE582BC
:10045B0029F582E5833AF583E0225006E92582F8F7
:10046B00E622BBFE06E92582F8E222E58229F58227
:10047B00E5833AF583E49322BB010689828A83F0F4
:10048B00225002F722BBFE01F322F8BB010DE582DD
:10049B0029F582E5833AF583E8F0225006E92582B7
:1004AB00C8F622BBFE05E92582C8F22275F0087555
:1004BB008200EF2FFFEE33FECD33CDCC33CCC58294
:1004CB0033C5829BED9AEC99E58298400CF582EE50
:1004DB009BFEED9AFDEC99FC0FD5F0D6E4CEFBE438
:1004EB00CDFAE4CCF9A88222B800C1B90059BA0000
:1004FB002DEC8BF084CFCECDFCE5F0CBF97818EF5B
:10050B002FFFEE33FEED33FDEC33FCEB33FB10D75B
:10051B0003994004EB99FB0FD8E5E4F9FA2278181C
:10052B00EF2FFFEE33FEED33FDEC33FCC933C91077
:10053B00D7059BE99A4007EC9BFCE99AF90FD8E0A9
:10054B00E4C9FAE4CCFB2275F010EF2FFFEE33FE7B
:10055B00ED33FDCC33CCC833C810D7079BEC9AE8EE
:10056B0099400AED9BFDEC9AFCE899F80FD5F0DA6F
:10057B00E4CDFBE4CCFAE4C8F922EB9FF5F0EA9E5C
:10058B0042F0E99D42F0E89C45F0227401FF33955F
:10059B00E0FEFDFC080808E62FFFF618E63EFEF627
:1005AB0018E63DFDF618E63CFCF622E490005EF002
:1005BB00A3F0F53EF53DF53CF53BF542F541F54035
:1005CB00F53F53D9BFF5B943B980F5440544E5442C
:1005DB00B414F943B9C0E5B930E5FB43A90275B2D0
:1005EB008375E10775E2C175A43F75A59075A69952
:1005FB0075F2BB75F3FD75D4C075D54C75D602126B
:10060B0007CE7548FF75490B754A7D7BFF7A0B79D1
:10061B00711202B17F09120CBA75A14075F80875F9
:10062B00A20143F801D2FA7F017E00120C7DC2FABF
:10063B007F017E00120C7DD2FA7F297E00120C7D89
:10064B00C2FA2081FD75A330A2FFE43360FAC2FF2A
:10065B00D2FA7BFF7A0C79CB12003E900CEEE4932E
:10066B00FD7F3E120C617FFA7E00120C7D1208F6A4
:10067B0090005EEFF0A3E06F600890005EE0FF1269
:10068B000A5D90005EE0A3F0120BAEEF60D8900015
:10069B000BE024FE60300470F5120003EF60FA7B70
:1006AB00017A0079497D15120C95783F1205961247
:1006BB000705754801754900754A007BFF7A0B7970
:1006CB008C1202B180D375433D7548007549007596
:1006DB004A437B017A00790C120973EF60E8783B8F
:1006EB00120596120705754801754900754A007B7E
:1006FB00FF7A0B79921202B180CC8F488E478D46D0
:10070B008C45E4F54AF54BF54CF54DF5517550CA52
:10071B00754F9A754E3BFFFEFDFCAB48AA47A946A9
:10072B00A845C3120585700A9000007430F0E4A34D
:10073B00F02275490AAB51AA50A94FA84EAF48AE4B
:10074B0047AD46AC451204F38E4C8F4DE54B64011F
:10075B006006E54D454C603B754B01AF48AE47AD70
:10076B0046AC45AB51AA50A94FA84E1204F3AC00AE
:10077B00AD01AE02AF038F488E478D468C45E54DDC
:10078B002430FFAE4A054A74002EF582E43400F59E
:10079B0083EFF0AF51AE50AD4FAC4EE47B0AFAF99C
:1007AB00F81204F38F518E508D4F8C4E1549E5493D
:1007BB007083AF4A054A74002FF582E43400F58349
:1007CB00E4F022758C96858C8A5389FC438902430D
:1007DB008E04D28C43C18043E601D2AFE4F537F5EA
:1007EB0038F53AC2A3000000000000000000D2A3BD
:1007FB00750807750976F50A750B0C750C21750DC7
:10080B00A0750E07750F24F510120BD6E537640192
:10081B0060FA750803750976E4F50A750B80750C9B
:10082B0012750D76750E407F10780F749BF608DFEE
:10083B00FC751F03752076E4F5217522C075231214
:10084B007524767525407F107826749BF608DFFC9F
:10085B007F10E4F536120BD6E537640160FA227887
:10086B007FE4F6D8FD7581560208B10205B6E49314
:10087B00A3F8E493A34003F68001F208DFF4802988
:10088B00E493A3F85407240CC8C333C4540F442077
:10089B00C8834004F456800146F6DFE4800B010266
:1008AB00040810204080900BFAE47E019360BCA3F7
:1008BB00FF543F30E509541FFEE493A360010ECFB4
:1008CB0054C025E060A840B8E493A3FAE493A3F8DE
:1008DB00E493A3C8C582C8CAC583CAF0A3C8C5829E
:1008EB00C8CAC583CADFE9DEE780BEC2EDD2EC30F1
:1008FB00EDFDAFBEEFD394607E0040027E01EFC3EF
:10090B00947B7D0050027D01ED5E60037F0322EF3F
:10091B00D394A47E0040027E01EFC394BF7D0050B0
:10092B00027D01ED5E60037F0422EFD394C47E0051
:10093B0040027E01EFC394DF7D0050027D01ED5E2E
:10094B0060037F0122EFC394007E0040027E01EF23
:10095B00C3943D7F0050027F01EF5E60037F022254
:10096B007F003095027F05228B458A4689477F346D
:10097B00120CA83086FD2086FD7F3B120C3FEF54F6
:10098B007F605C7F3F120C1D8F4DAB48AA49A94A73
:10099B0012043DFFE54DD39F502DAB45AA46A94709
:1009AB00854D527F3F120AF2AB48AA49A94AE54D41
:1009BB001204837B007A00794B7552027F3F120A37
:1009CB00F2E54C5480FF22AB48AA49A94AE54D12E7
:1009DB0004837F36120CA87F3A120CA87F00227F6B
:1009EB000022C0E0C0F0C083C082C0D075D000C070
:1009FB0000C001C002C003C004C005C006C007E5AB
:100A0B00C054F02440601324E0702AAF3A053A74C6
:100A1B00082FF8E6F5C2C2C5801B1539E539600D04
:100A2B00AF3A053A74082FF8E6F5C28008D2C475C0
:100A3B003800120BD9C2C0D007D006D005D004D0D5
:100A4B0003D002D001D000D0D0D082D083D0F0D050
:100A5B00E032EF24FC602604704790000BE0FF644B
:100A6B00026003EF703B90000B7401F0754800754A
:100A7B004900754A007BFF7A0B799C802190000B13
:100A8B00E0FF64016003EF701890000B7402F075C7
:100A9B004800754900754A007BFF7A0B79A5120255
:100AAB00B122854B82758300120456FFBF24047F4D
:100ABB00828033BF40047F80802CEF70047F9B804B
:100ACB0025EFD3941F4005EF94244016EFD39424C5
:100ADB004005EF9440400BEFD394404009EF945BFB
:100AEB00500474802FFF228B4F8A508951C2FA20F9
:100AFB0081FDEF44C0F5A3A2FFE43360FAC2FFE42B
:100B0B00FFEFC39552501EE4F5A3A2FFE43360FA46
:100B1B00C2FFAB4FAA50A9518F82758300E5A31278
:100B2B0004950F80DCD2FA228B468A478948C2FA99
:100B3B002081FDEF4440F5A3A2FFE43360FAC2FF2E
:100B4B00E4FFEFC39549501BAB46AA47A9488F82D8
:100B5B00758300120456F5A3A2FFE43360FAC2FFBB
:100B6B000F80DFD2FA2253656C656374204D6F647E
:100B7B0065005573696E67204A6F79737469636B8F
:100B8B000053656E743A0052656365697665643A25
:100B9B00004D6F64653A205478004D6F64653A20C0
:100BAB00527800309514E556601EAF550555EFB4DD
:100BBB006416E4F556F5557F0122AF550555EFB494
:100BCB006406755601E4F5557F0022753701E5374C
:100BDB00601CE5387018AF3A053A74082FF8E6F543
:100BEB00396006753801D2C522E4F537F53A22553E
:100BFB00004914000102030405060708090A0B0C3F
:100C0B000D0E0F1011121341000B00015401015670
:100C1B000100C2FA2081FDEF4480F5A3A2FFE4336B
:100C2B0060FAC2FFE4F5A3A2FFE43360FAC2FFAFA0
:100C3B00A3D2FA22C2FA2081FDEF44C0F5A3A2FF92
:100C4B00E43360FAC2FFE4F5A3A2FFE43360FAC217
:100C5B00FFAFA3D2FA22C2FA2081FD8FA3A2FFE439
:100C6B003360FAC2FF8DA3A2FFE43360FAC2FFD256
:100C7B00FA2200000000000000000000000000004D
:100C8B00EF1F70011E144E70E9228D497F3F120B2E
:100C9B00337F35120CA83086FD2086FD22C2FA2048
:100CAB0081FD8FA3A2FFE43360FAC2FFD2FA227553
:100CBB00BC3C75E840D2EF75D1088FBB75BA1F22CB
:100CCB000A000C1D892D3B7322F80000B610181D6D
:100CDB001CC700B0EA2A001F5988310B07290604EC
:040CEB000500FF60A1
:00000001FF
