:1000000002001E75BC3C75E840D2EF75D1088FBB6D
:0400100075BA1F227C
:10001B0002002A787FE4F6D8FD758145020266C29C
:0A002B00EDD2EC30EDFD85BEFC3295
:10003B000202E08B3C8A3D893EE4F542E5376003E2
:10004B000201C7750803750976F50A750C12750D53
:10005B0076750E401203B3FF700BAB3FAA40A9415C
:10006B001203B3700EAB3FAA40A9411203B37075D4
:10007B00EF6072AB3CAA3DA93E1203B3600B750B4C
:10008B00808B438A448945800C750BC0853F438523
:10009B004044854145AB43AA44A9451203F9740F6B
:1000AB002542F8A607AB43AA44A945AF4205428FA8
:1000BB00827583001203CC6007E542C3941040D5D0
:1000CB00E542C39410501874072542F542E542C32C
:1000DB009417500B74082542F8769B054280EEE48A
:1000EB00F51F0201BEAB3CAA3DA93E1203B3700340
:1000FB000201BEAB3FAA40A9411203B37003020138
:10010B00BE750B80751F03752076E4F5217522C033
:10011B00752312752476752540AB3CAA3DA93E127A
:10012B0003F9740F2542F8A607AB3CAA3DA93EAFD5
:10013B004205428F827583001203CC6007E542C3F0
:10014B00941040D5E542C39410501874072542F51E
:10015B0042E542C39417500B74082542F8769B0571
:10016B004280EEE4F542AB3FAA40A9411203F97479
:10017B00262542F8A607AB3FAA40A941AF4205424C
:10018B008F827583001203CC6007E542C394104045
:10019B00D5E542C394105018741E2542F542E54232
:1001AB00C3942E500B74082542F8769B054280EEC3
:1001BB00E4F5367537011204417F01227F00227569
:1001CB008C96858C8A5389FC438902438E04D28C8E
:1001DB0043C18043E601D2AFE4F537F538F53AC2B7
:1001EB00A3000000000000000000D2A375080775F3
:1001FB000976F50A750B0C750C21750DA0750E079C
:10020B00750F24F51012043EE537640160FA75088A
:10021B0003750976E4F50A750B80750C12750D766E
:10022B00750E407F10780F749BF608DFFC751F036B
:10023B00752076E4F5217522C07523127524767529
:10024B0025407F107826749BF608DFFC7F10E4F5C1
:10025B003612043EE537640160FA2253D9BFE4F548
:10026B00B943B980F53B053BE53BB414F943B9C041
:10027B00E5B930E5FB43A90275B28375E10775E279
:10028B00C175A43F75A59075A69975F2BB75F3FD65
:10029B0075D4C075D54C75D6021201CA753F007561
:1002AB0040007541007BFF7A04796212003E7F02A9
:1002BB00120003753BF0E53BF404F58D858D8B75D2
:1002CB003F017B027D047F0112035043D90875DA8D
:1002DB0042D2DE80FEC0E0C0F0C083C082C0D075C9
:1002EB00D000C000C001C002C003C004C005C006DE
:1002FB00C007E5C054F02440601324E0702AAF3AE5
:10030B00053A74082FF8E6F5C2C2C5801B1539E50E
:10031B0039600DAF3A053A74082FF8E6F5C280083C
:10032B00D2C4753800120441C2C0D007D006D00524
:10033B00D004D003D002D001D000D0D0D082D08353
:10034B00D0F0D0E0327EFCEF70085389FCEB428991
:10035B00800CBF01095389CFEBC454F04289EF7075
:10036B0021EDD394034005438E04800B538EFBE5A4
:10037B008E5206EE4DF58EE53F6004D2A9D2AFD278
:10038B008C22EF64017020EDD394034005438E085B
:10039B00800B538EF7E58E5206EE4DF58EE53F60E2
:1003AB0004D2ABD2AFD28E22BB010689828A83E004
:1003BB00225002E722BBFE02E32289828A83E49366
:1003CB0022BB010CE58229F582E5833AF583E02215
:1003DB005006E92582F8E622BBFE06E92582F8E203
:1003EB0022E58229F582E5833AF583E4932285425F
:1003FB00827583001203CCFFBF24047F828033BF3E
:10040B0040047F80802CEF70047F9B8025EFD3947A
:10041B001F4005EF94244016EFD394244005EF942E
:10042B0040400BEFD394404009EF945B5004748031
:10043B002FFF22753701E537601CE5387018AF3A8E
:10044B00053A74082FF8E6F5396006753801D2C500
:0F045B0022E4F537F53A22417564696F2E63008C
:00000001FF
