:10080000020B0E209314E56D601EAF6C056CEFB407
:100810006416E4F56DF56C7F0122AF6C056CEFB4E6
:100820006406756D01E4F56C7F0022C2EDD2EC30F8
:09083000EDFDAFBE22016D0100D7
:03083B00020B9419
:10084600E18C640D538B5E8A5F8960E4F564E55A3A
:1008560060030209D4752B03752C76F52D752F12BE
:10086600753076753140120A73FF700BAB61AA6260
:10087600A963120A73700EAB61AA62A963120A73A6
:100886007075EF6072AB5EAA5FA960120A73600BA7
:10089600752E808B658A668967800C752EC085618A
:1008A60065856266856367AB65AA66A967120CC62D
:1008B60074322564F8A607AB65AA66A967AF640516
:1008C600648F82758300120A8C6007E564C39410F6
:1008D60040D5E564C39410501874072564F564E5A3
:1008E60064C39417500B742B2564F8769B056480BB
:1008F600EEE4F5420209CBAB5EAA5FA960120A7369
:1009060070030209CBAB61AA62A963120A73700372
:100916000209CB752E80754203754376E4F544755E
:1009260045C0754612754776754840AB5EAA5FA905
:1009360060120CC674322564F8A607AB5EAA5FA9DE
:1009460060AF6405648F82758300120A8C6007E5C8
:1009560064C3941040D5E564C394105018740725F9
:1009660064F564E564C39417500B742B2564F8761C
:100976009B056480EEE4F564AB61AA62A963120C80
:10098600C674492564F8A607AB61AA62A963AF6479
:1009960005648F82758300120A8C6007E564C39430
:1009A6001040D5E564C394105018741E2564F56490
:1009B600E564C3942E500B742B2564F8769B05646E
:1009C60080EEE4F559755A01120D0E7F01227F0063
:1009D60022758C96858C8A5389FC438902438E0442
:1009E600D28C43C18043E601D2AFE4F55AF55BF5FC
:1009F6005DC2A3000000000000000000D2A3752B1A
:100A060007752C76F52D752E0C752F217530A07572
:100A16003107753224F533120D0BE55A640160FA7D
:100A2600752B03752C76E4F52D752E80752F1275B2
:100A360030767531407F107832749BF608DFFC758E
:100A46004203754376E4F5447545C075461275470D
:100A5600767548407F107849749BF608DFFC7F1056
:100A6600E4F559120D0BE55A640160FA22BB010642
:100A760089828A83E0225002E722BBFE02E32289B2
:100A8600828A83E49322BB010CE58229F582E58301
:100A96003AF583E0225006E92582F8E622BBFE06F7
:100AA600E92582F8E222E58229F582E5833AF58393
:100AB600E49322BC000BBE0029EF8DF084FFADF05D
:100AC60022E4CCF875F008EF2FFFEE33FEEC33FC92
:100AD600EE9DEC984005FCEE9DFE0FD5F0E9E4CEC8
:100AE600FD22EDF8F5F0EE8420D21CFEADF075F097
:100AF60008EF2FFFED33FD4007985006D5F0F222A0
:100B0600C398FD0FD5F0EA2275816D020B4F020CDA
:100B16006EE493A3F8E493A34003F68001F208DFA2
:100B2600F48029E493A3F85407240CC8C333C454AF
:100B36000F4420C8834004F456800146F6DFE48063
:100B46000B0102040810204080900835E47E0193D2
:100B560060BCA3FF543F30E509541FFEE493A36035
:100B6600010ECF54C025E060A840B8E493A3FAE490
:100B760093A3F8E493A3C8C582C8CAC583CAF0A3E1
:100B8600C8C582C8CAC583CADFE9DEE780BEC0E041
:100B9600C0F0C083C082C0D075D000C000C001C004
:100BA60002C003C004C005C006C007E5C054F02457
:100BB60040601324E0702AAF5D055D742B2FF8E6C4
:100BC600F5C2C2C5801B155CE55C600DAF5D055DB9
:100BD600742B2FF8E6F5C28008D2C4755B00120D9F
:100BE6000EC2C0D007D006D005D004D003D002D0A4
:100BF60001D000D0D0D082D083D0F0D0E032AB0785
:100C0600E4F55EF55FF560F561900064EB700675DE
:100C16006830F569227A03EBFF7E00AD82AC831261
:100C26000AB98E608F61E55F64016006E561456023
:100C3600601A755F01AF82EB8FF084ABF0E561243B
:100C460030FFAE5E055E74682EF8A6077C007D0A4E
:100C5600AF82AE83120AB98E838F82DABAAF5E058F
:100C66005E74682FF8E4F62275E10775E2C175A493
:100C76003F75A59075A69975F2BB75F3FD75D4C041
:100C860075D54C75D6021209D77561FF75620D755B
:100C9600633A7BFF7A0D792F12084B7F06120D738C
:100CA600120803EF60FA12082B120C047561007526
:100CB60062007563687BFF7A0D794312084B80E00A
:100CC600856482758300120A8CFFBF24047F8280AC
:100CD60033BF40047F80802CEF70047F9B8025EF1C
:100CE600D3941F4005EF94244016EFD39424400577
:100CF600EF9440400BEFD394404009EF945B5004CF
:100D060074802FFF22755A01E55A601CE55B701846
:100D1600AF5D055D742B2FF8E6F55C6006755B012B
:100D2600D2C522E4F55AF55D22506F746D6574657F
:100D3600722E6300507265737320533100506F74C6
:100D46006D657465722056616C75650022DDDDDDAA
:100D5600DD0D520D520D520D520D520902120001B7
:100D6600010040320904000000FFFFFF0075BC3C93
:0E0D760075E840D2EF75D1088FBB75BA1F2209
:00000001FF
