:10000000020301209314E54B601EAF4A054AEFB48A
:100010006416E4F54BF54A7F0122AF4A054AEFB476
:100020006406754B01E4F54A7F0022C2EDD2EC3044
:09003000EDFDAFBE22014B010001
:10003B000204058B3C8A3D893EE4F542E5376003BB
:10004B000201C7750803750976F50A750C12750D53
:10005B0076750E40120266FF700BAB3FAA40A941AA
:10006B00120266700EAB3FAA40A941120266707570
:10007B00EF6072AB3CAA3DA93E120266600B750B9A
:10008B00808B438A448945800C750BC0853F438523
:10009B004044854145AB43AA44A9451204DF740F84
:1000AB002542F8A607AB43AA44A945AF4205428FA8
:1000BB008275830012027F6007E542C3941040D51E
:1000CB00E542C39410501874072542F542E542C32C
:1000DB009417500B74082542F8769B054280EEE48A
:1000EB00F51F0201BEAB3CAA3DA93E12026670038E
:1000FB000201BEAB3FAA40A9411202667003020186
:10010B00BE750B80751F03752076E4F5217522C033
:10011B00752312752476752540AB3CAA3DA93E127A
:10012B0004DF740F2542F8A607AB3CAA3DA93EAFEE
:10013B004205428F8275830012027F6007E542C33E
:10014B00941040D5E542C39410501874072542F51E
:10015B0042E542C39417500B74082542F8769B0571
:10016B004280EEE4F542AB3FAA40A9411204DF7492
:10017B00262542F8A607AB3FAA40A941AF4205424C
:10018B008F8275830012027F6007E542C394104093
:10019B00D5E542C394105018741E2542F542E54232
:1001AB00C3942E500B74082542F8769B054280EEC3
:1001BB00E4F5367537011205277F01227F00227582
:1001CB008C96858C8A5389FC438902438E04D28C8E
:1001DB0043C18043E601D2AFE4F537F538F53AC2B7
:1001EB00A3000000000000000000D2A375080775F3
:1001FB000976F50A750B0C750C21750DA0750E079C
:10020B00750F24F510120524E537640160FA7508A3
:10021B0003750976E4F50A750B80750C12750D766E
:10022B00750E407F10780F749BF608DFFC751F036B
:10023B00752076E4F5217522C07523127524767529
:10024B0025407F107826749BF608DFFC7F10E4F5C1
:10025B0036120524E537640160FA22BB0106898258
:10026B008A83E0225002E722BBFE02E32289828AC4
:10027B0083E49322BB010CE58229F582E5833AF5F1
:10028B0083E0225006E92582F8E622BBFE06E9252B
:10029B0082F8E222E58229F582E5833AF583E4933D
:1002AB0022BC000BBE0029EF8DF084FFADF022E4E1
:1002BB00CCF875F008EF2FFFEE33FEEC33FCEE9D20
:1002CB00EC984005FCEE9DFE0FD5F0E9E4CEFD2247
:1002DB00EDF8F5F0EE8420D21CFEADF075F008EFD2
:1002EB002FFFED33FD4007985006D5F0F222C3984F
:1002FB00FD0FD5F0EA22787FE4F6D8FD75814B022D
:10030B00034802038DE493A3F8E493A34003F68020
:10031B0001F208DFF48029E493A3F85407240CC8F6
:10032B00C333C4540F4420C8834004F456800146A1
:10033B00F6DFE4800B0102040810204080900035AA
:10034B00E47E019360BCA3FF543F30E509541FFECC
:10035B00E493A360010ECF54C025E060A840B8E43D
:10036B0093A3FAE493A3F8E493A3C8C582C8CAC5C0
:10037B0083CAF0A3C8C582C8CAC583CADFE9DEE752
:10038B0080BE53D9BFE4F5B943B980F53B053BE5D6
:10039B003BB414F943B9C0E5B930E5FB43A9027589
:1003AB00B28375E10775E2C175A43F75A59075A67B
:1003BB009975F2BB75F3FD75D4C075D54C75D60226
:1003CB001201CA753FFF7540057541537BFF7A05D6
:1003DB00794812003E7F0612056B120003EF60FA9C
:1003EB0012002B120475753F007540007541467B5A
:1003FB00FF7A05795C12003E80E0C0E0C0F0C0835C
:10040B00C082C0D075D000C000C001C002C003C004
:10041B0004C005C006C007E5C054F0244060132497
:10042B00E0702AAF3A053A74082FF8E6F5C2C2C558
:10043B00801B1539E539600DAF3A053A74082FF872
:10044B00E6F5C28008D2C4753800120527C2C0D0A9
:10045B0007D006D005D004D003D002D001D000D0F5
:10046B00D0D082D083D0F0D0E032AB07E4F53CF5AE
:10047B003DF53EF53F900064EB7006754630F54751
:10048B00227A03EBFF7E00AD82AC831202AC8E3E70
:10049B008F3FE53D64016006E53F453E601A753DC3
:1004AB0001AF82EB8FF084ABF0E53F2430FFAE3C25
:1004BB00053C74462EF8A6077C007D0AAF82AE83FE
:1004CB001202AC8E838F82DABAAF3C053C74462F96
:1004DB00F8E4F62285428275830012027FFFBF2467
:1004EB00047F828033BF40047F80802CEF70047FB9
:1004FB009B8025EFD3941F4005EF94244016EFD338
:10050B0094244005EF9440400BEFD394404009EF07
:10051B00945B500474802FFF22753701E537601C04
:10052B00E5387018AF3A053A74082FF8E6F53960DC
:10053B0006753801D2C522E4F537F53A22506F74AF
:10054B006D657465722E6300507265737320533141
:10055B0000506F746D657465722056616C75650023
:10056B0075BC3C75E840D2EF75D1088FBB75BA1FCF
:01057B00225D
:00000001FF
